{
  "address": "0x6B3f451a763817f7AD366384c0fA46430158Ba3d",
  "abi": [
    {
      "inputs": [],
      "stateMutability": "nonpayable",
      "type": "constructor"
    },
    {
      "anonymous": false,
      "inputs": [
        {
          "indexed": true,
          "internalType": "address",
          "name": "account",
          "type": "address"
        },
        {
          "indexed": true,
          "internalType": "address",
          "name": "operator",
          "type": "address"
        },
        {
          "indexed": false,
          "internalType": "bool",
          "name": "approved",
          "type": "bool"
        }
      ],
      "name": "ApprovalForAll",
      "type": "event"
    },
    {
      "anonymous": false,
      "inputs": [
        {
          "indexed": true,
          "internalType": "address",
          "name": "previousOwner",
          "type": "address"
        },
        {
          "indexed": true,
          "internalType": "address",
          "name": "newOwner",
          "type": "address"
        }
      ],
      "name": "OwnershipTransferred",
      "type": "event"
    },
    {
      "anonymous": false,
      "inputs": [
        {
          "indexed": true,
          "internalType": "address",
          "name": "operator",
          "type": "address"
        },
        {
          "indexed": true,
          "internalType": "address",
          "name": "from",
          "type": "address"
        },
        {
          "indexed": true,
          "internalType": "address",
          "name": "to",
          "type": "address"
        },
        {
          "indexed": false,
          "internalType": "uint256[]",
          "name": "ids",
          "type": "uint256[]"
        },
        {
          "indexed": false,
          "internalType": "uint256[]",
          "name": "values",
          "type": "uint256[]"
        }
      ],
      "name": "TransferBatch",
      "type": "event"
    },
    {
      "anonymous": false,
      "inputs": [
        {
          "indexed": true,
          "internalType": "address",
          "name": "operator",
          "type": "address"
        },
        {
          "indexed": true,
          "internalType": "address",
          "name": "from",
          "type": "address"
        },
        {
          "indexed": true,
          "internalType": "address",
          "name": "to",
          "type": "address"
        },
        {
          "indexed": false,
          "internalType": "uint256",
          "name": "id",
          "type": "uint256"
        },
        {
          "indexed": false,
          "internalType": "uint256",
          "name": "value",
          "type": "uint256"
        }
      ],
      "name": "TransferSingle",
      "type": "event"
    },
    {
      "anonymous": false,
      "inputs": [
        {
          "indexed": false,
          "internalType": "string",
          "name": "value",
          "type": "string"
        },
        {
          "indexed": true,
          "internalType": "uint256",
          "name": "id",
          "type": "uint256"
        }
      ],
      "name": "URI",
      "type": "event"
    },
    {
      "inputs": [
        {
          "internalType": "address",
          "name": "account",
          "type": "address"
        },
        {
          "internalType": "uint256",
          "name": "id",
          "type": "uint256"
        }
      ],
      "name": "balanceOf",
      "outputs": [
        {
          "internalType": "uint256",
          "name": "",
          "type": "uint256"
        }
      ],
      "stateMutability": "view",
      "type": "function"
    },
    {
      "inputs": [
        {
          "internalType": "address[]",
          "name": "accounts",
          "type": "address[]"
        },
        {
          "internalType": "uint256[]",
          "name": "ids",
          "type": "uint256[]"
        }
      ],
      "name": "balanceOfBatch",
      "outputs": [
        {
          "internalType": "uint256[]",
          "name": "",
          "type": "uint256[]"
        }
      ],
      "stateMutability": "view",
      "type": "function"
    },
    {
      "inputs": [],
      "name": "baseURI",
      "outputs": [
        {
          "internalType": "string",
          "name": "",
          "type": "string"
        }
      ],
      "stateMutability": "view",
      "type": "function"
    },
    {
      "inputs": [
        {
          "internalType": "uint256",
          "name": "id",
          "type": "uint256"
        }
      ],
      "name": "exists",
      "outputs": [
        {
          "internalType": "bool",
          "name": "",
          "type": "bool"
        }
      ],
      "stateMutability": "view",
      "type": "function"
    },
    {
      "inputs": [
        {
          "internalType": "address",
          "name": "account",
          "type": "address"
        },
        {
          "internalType": "address",
          "name": "operator",
          "type": "address"
        }
      ],
      "name": "isApprovedForAll",
      "outputs": [
        {
          "internalType": "bool",
          "name": "",
          "type": "bool"
        }
      ],
      "stateMutability": "view",
      "type": "function"
    },
    {
      "inputs": [
        {
          "internalType": "address",
          "name": "_to",
          "type": "address"
        },
        {
          "internalType": "uint256",
          "name": "_amount",
          "type": "uint256"
        },
        {
          "internalType": "string",
          "name": "_uri",
          "type": "string"
        }
      ],
      "name": "mint",
      "outputs": [
        {
          "internalType": "uint256",
          "name": "",
          "type": "uint256"
        }
      ],
      "stateMutability": "nonpayable",
      "type": "function"
    },
    {
      "inputs": [],
      "name": "owner",
      "outputs": [
        {
          "internalType": "address",
          "name": "",
          "type": "address"
        }
      ],
      "stateMutability": "view",
      "type": "function"
    },
    {
      "inputs": [],
      "name": "renounceOwnership",
      "outputs": [],
      "stateMutability": "nonpayable",
      "type": "function"
    },
    {
      "inputs": [
        {
          "internalType": "address",
          "name": "from",
          "type": "address"
        },
        {
          "internalType": "address",
          "name": "to",
          "type": "address"
        },
        {
          "internalType": "uint256[]",
          "name": "ids",
          "type": "uint256[]"
        },
        {
          "internalType": "uint256[]",
          "name": "amounts",
          "type": "uint256[]"
        },
        {
          "internalType": "bytes",
          "name": "data",
          "type": "bytes"
        }
      ],
      "name": "safeBatchTransferFrom",
      "outputs": [],
      "stateMutability": "nonpayable",
      "type": "function"
    },
    {
      "inputs": [
        {
          "internalType": "address",
          "name": "from",
          "type": "address"
        },
        {
          "internalType": "address",
          "name": "to",
          "type": "address"
        },
        {
          "internalType": "uint256",
          "name": "id",
          "type": "uint256"
        },
        {
          "internalType": "uint256",
          "name": "amount",
          "type": "uint256"
        },
        {
          "internalType": "bytes",
          "name": "data",
          "type": "bytes"
        }
      ],
      "name": "safeTransferFrom",
      "outputs": [],
      "stateMutability": "nonpayable",
      "type": "function"
    },
    {
      "inputs": [
        {
          "internalType": "address",
          "name": "operator",
          "type": "address"
        },
        {
          "internalType": "bool",
          "name": "approved",
          "type": "bool"
        }
      ],
      "name": "setApprovalForAll",
      "outputs": [],
      "stateMutability": "nonpayable",
      "type": "function"
    },
    {
      "inputs": [
        {
          "internalType": "bytes4",
          "name": "interfaceId",
          "type": "bytes4"
        }
      ],
      "name": "supportsInterface",
      "outputs": [
        {
          "internalType": "bool",
          "name": "",
          "type": "bool"
        }
      ],
      "stateMutability": "view",
      "type": "function"
    },
    {
      "inputs": [
        {
          "internalType": "uint256",
          "name": "id",
          "type": "uint256"
        }
      ],
      "name": "totalSupply",
      "outputs": [
        {
          "internalType": "uint256",
          "name": "",
          "type": "uint256"
        }
      ],
      "stateMutability": "view",
      "type": "function"
    },
    {
      "inputs": [
        {
          "internalType": "address",
          "name": "newOwner",
          "type": "address"
        }
      ],
      "name": "transferOwnership",
      "outputs": [],
      "stateMutability": "nonpayable",
      "type": "function"
    },
    {
      "inputs": [
        {
          "internalType": "uint256",
          "name": "id",
          "type": "uint256"
        }
      ],
      "name": "uri",
      "outputs": [
        {
          "internalType": "string",
          "name": "",
          "type": "string"
        }
      ],
      "stateMutability": "view",
      "type": "function"
    }
  ],
  "transactionHash": "0x69983dd7b2fc40132f66d229768aa5166bfd082ecce3632f39cc8ee40d7caec2",
  "args": [],
  "solcInputHash": "60f3c0debc1e834e8defd382214d9908",
  "bytecode": "0x60806040523480156200001157600080fd5b506040805160208101909152600081526200002c8162000047565b50620000416200003b62000060565b62000064565b62000199565b80516200005c906002906020840190620000b6565b5050565b3390565b600680546001600160a01b038381166001600160a01b0319831681179093556040519116919082907f8be0079c531659141344cd1fd0a4f28419497f9722a3daafe3b4186f6b6457e090600090a35050565b828054620000c4906200015c565b90600052602060002090601f016020900481019282620000e8576000855562000133565b82601f106200010357805160ff191683800117855562000133565b8280016001018555821562000133579182015b828111156200013357825182559160200191906001019062000116565b506200014192915062000145565b5090565b5b8082111562000141576000815560010162000146565b6002810460018216806200017157607f821691505b602082108114156200019357634e487b7160e01b600052602260045260246000fd5b50919050565b611ddd80620001a96000396000f3fe608060405234801561001057600080fd5b50600436106100f45760003560e01c8063715018a611610097578063d3fc986411610066578063d3fc9864146101f5578063e985e9c514610208578063f242432a1461021b578063f2fde38b1461022e576100f4565b8063715018a6146101b25780638da5cb5b146101ba578063a22cb465146101cf578063bd85b039146101e2576100f4565b80632eb2c2d6116100d35780632eb2c2d6146101625780634e1273f4146101775780634f558e79146101975780636c0360eb146101aa576100f4565b8062fdd58e146100f957806301ffc9a7146101225780630e89341c14610142575b600080fd5b61010c610107366004611471565b610241565b6040516101199190611b62565b60405180910390f35b6101356101303660046115c0565b610298565b604051610119919061179d565b6101556101503660046115f8565b6102e0565b60405161011991906117a8565b61017561017036600461132e565b6102eb565b005b61018a610185366004611502565b610349565b604051610119919061175c565b6101356101a53660046115f8565b610469565b61015561047c565b61017561050f565b6101c261055a565b60405161011991906116a5565b6101756101dd366004611437565b610569565b61010c6101f03660046115f8565b610637565b61010c61020336600461149a565b610649565b6101356102163660046112fc565b6106cf565b6101756102293660046113d4565b6106fd565b61017561023c3660046112e2565b610754565b60006001600160a01b0383166102725760405162461bcd60e51b815260040161026990611857565b60405180910390fd5b506000908152602081815260408083206001600160a01b03949094168352929052205490565b60006001600160e01b03198216636cdb3d1360e11b14806102c957506001600160e01b031982166303a24d0760e21b145b806102d857506102d8826107c5565b90505b919050565b60606102d8826107de565b6102f36108ff565b6001600160a01b0316856001600160a01b031614806103195750610319856102166108ff565b6103355760405162461bcd60e51b815260040161026990611976565b6103428585858585610903565b5050505050565b6060815183511461036c5760405162461bcd60e51b815260040161026990611a90565b6000835167ffffffffffffffff81111561039657634e487b7160e01b600052604160045260246000fd5b6040519080825280602002602001820160405280156103bf578160200160208202803683370190505b50905060005b8451811015610461576104268582815181106103f157634e487b7160e01b600052603260045260246000fd5b602002602001015185838151811061041957634e487b7160e01b600052603260045260246000fd5b6020026020010151610241565b82828151811061044657634e487b7160e01b600052603260045260246000fd5b602090810291909101015261045a81611c75565b90506103c5565b509392505050565b60008061047583610637565b1192915050565b60606005805461048b90611c3a565b80601f01602080910402602001604051908101604052809291908181526020018280546104b790611c3a565b80156105045780601f106104d957610100808354040283529160200191610504565b820191906000526020600020905b8154815290600101906020018083116104e757829003601f168201915b505050505090505b90565b6105176108ff565b6001600160a01b031661052861055a565b6001600160a01b03161461054e5760405162461bcd60e51b815260040161026990611a12565b6105586000610ad4565b565b6006546001600160a01b031690565b816001600160a01b031661057b6108ff565b6001600160a01b031614156105a25760405162461bcd60e51b815260040161026990611a47565b80600160006105af6108ff565b6001600160a01b03908116825260208083019390935260409182016000908120918716808252919093529120805460ff1916921515929092179091556105f36108ff565b6001600160a01b03167f17307eab39ab6107e8899845ad3d59bd9653f200f220920489ca2b5937696c318360405161062b919061179d565b60405180910390a35050565b60009081526003602052604090205490565b60006106536108ff565b6001600160a01b031661066461055a565b6001600160a01b03161461068a5760405162461bcd60e51b815260040161026990611a12565b6106946007610b26565b60006106a06007610b2f565b90506106ac8184610b33565b6106c785828660405180602001604052806000815250610b97565b949350505050565b6001600160a01b03918216600090815260016020908152604080832093909416825291909152205460ff1690565b6107056108ff565b6001600160a01b0316856001600160a01b0316148061072b575061072b856102166108ff565b6107475760405162461bcd60e51b8152600401610269906118e8565b6103428585858585610bcc565b61075c6108ff565b6001600160a01b031661076d61055a565b6001600160a01b0316146107935760405162461bcd60e51b815260040161026990611a12565b6001600160a01b0381166107b95760405162461bcd60e51b8152600401610269906118a2565b6107c281610ad4565b50565b6001600160e01b031981166301ffc9a760e01b14919050565b6000818152600460205260408120805460609291906107fc90611c3a565b80601f016020809104026020016040519081016040528092919081815260200182805461082890611c3a565b80156108755780601f1061084a57610100808354040283529160200191610875565b820191906000526020600020905b81548152906001019060200180831161085857829003601f168201915b50505050509050600061088661047c565b905080516000141561089a575090506102db565b8151156108cc5780826040516020016108b4929190611676565b604051602081830303815290604052925050506102db565b806108d685610d0f565b6040516020016108e7929190611676565b60405160208183030381529060405292505050919050565b3390565b81518351146109245760405162461bcd60e51b815260040161026990611ad9565b6001600160a01b03841661094a5760405162461bcd60e51b815260040161026990611931565b60006109546108ff565b9050610964818787878787610acc565b60005b8451811015610a6657600085828151811061099257634e487b7160e01b600052603260045260246000fd5b6020026020010151905060008583815181106109be57634e487b7160e01b600052603260045260246000fd5b602090810291909101810151600084815280835260408082206001600160a01b038e168352909352919091205490915081811015610a0e5760405162461bcd60e51b8152600401610269906119c8565b6000838152602081815260408083206001600160a01b038e8116855292528083208585039055908b16825281208054849290610a4b908490611bc7565b9250508190555050505080610a5f90611c75565b9050610967565b50846001600160a01b0316866001600160a01b0316826001600160a01b03167f4a39dc06d4c0dbc64b70af90fd698a233a518aa5d07e595d983b8c0526c8f7fb8787604051610ab692919061176f565b60405180910390a4610acc818787878787610e2a565b505050505050565b600680546001600160a01b038381166001600160a01b0319831681179093556040519116919082907f8be0079c531659141344cd1fd0a4f28419497f9722a3daafe3b4186f6b6457e090600090a35050565b80546001019055565b5490565b60008281526004602090815260409091208251610b5292840190611148565b50817f6bb7ff708619ba0610cba295a58592e0451dee2622938c8755667688daf3529b610b7e846107de565b604051610b8b91906117a8565b60405180910390a25050565b610ba384848484610f38565b60008381526003602052604081208054849290610bc1908490611bc7565b909155505050505050565b6001600160a01b038416610bf25760405162461bcd60e51b815260040161026990611931565b6000610bfc6108ff565b9050610c1c818787610c0d88611018565b610c1688611018565b87610acc565b6000848152602081815260408083206001600160a01b038a16845290915290205483811015610c5d5760405162461bcd60e51b8152600401610269906119c8565b6000858152602081815260408083206001600160a01b038b8116855292528083208785039055908816825281208054869290610c9a908490611bc7565b92505081905550856001600160a01b0316876001600160a01b0316836001600160a01b03167fc3d58168c5ae7397731d063d5bbf3d657854427343f4c083240f7aacaa2d0f628888604051610cf0929190611b6b565b60405180910390a4610d06828888888888611071565b50505050505050565b606081610d3457506040805180820190915260018152600360fc1b60208201526102db565b8160005b8115610d5e5780610d4881611c75565b9150610d579050600a83611bdf565b9150610d38565b60008167ffffffffffffffff811115610d8757634e487b7160e01b600052604160045260246000fd5b6040519080825280601f01601f191660200182016040528015610db1576020820181803683370190505b5090505b84156106c757610dc6600183611bf3565b9150610dd3600a86611c90565b610dde906030611bc7565b60f81b818381518110610e0157634e487b7160e01b600052603260045260246000fd5b60200101906001600160f81b031916908160001a905350610e23600a86611bdf565b9450610db5565b610e3c846001600160a01b0316611142565b15610acc5760405163bc197c8160e01b81526001600160a01b0385169063bc197c8190610e7590899089908890889088906004016116b9565b602060405180830381600087803b158015610e8f57600080fd5b505af1925050508015610ebf575060408051601f3d908101601f19168201909252610ebc918101906115dc565b60015b610f0857610ecb611cec565b80610ed65750610ef0565b8060405162461bcd60e51b815260040161026991906117a8565b60405162461bcd60e51b8152600401610269906117bb565b6001600160e01b0319811663bc197c8160e01b14610d065760405162461bcd60e51b81526004016102699061180f565b6001600160a01b038416610f5e5760405162461bcd60e51b815260040161026990611b21565b6000610f686108ff565b9050610f7a81600087610c0d88611018565b6000848152602081815260408083206001600160a01b038916845290915281208054859290610faa908490611bc7565b92505081905550846001600160a01b031660006001600160a01b0316826001600160a01b03167fc3d58168c5ae7397731d063d5bbf3d657854427343f4c083240f7aacaa2d0f628787604051611001929190611b6b565b60405180910390a461034281600087878787611071565b6040805160018082528183019092526060916000919060208083019080368337019050509050828160008151811061106057634e487b7160e01b600052603260045260246000fd5b602090810291909101015292915050565b611083846001600160a01b0316611142565b15610acc5760405163f23a6e6160e01b81526001600160a01b0385169063f23a6e61906110bc9089908990889088908890600401611717565b602060405180830381600087803b1580156110d657600080fd5b505af1925050508015611106575060408051601f3d908101601f19168201909252611103918101906115dc565b60015b61111257610ecb611cec565b6001600160e01b0319811663f23a6e6160e01b14610d065760405162461bcd60e51b81526004016102699061180f565b3b151590565b82805461115490611c3a565b90600052602060002090601f01602090048101928261117657600085556111bc565b82601f1061118f57805160ff19168380011785556111bc565b828001600101855582156111bc579182015b828111156111bc5782518255916020019190600101906111a1565b506111c89291506111cc565b5090565b5b808211156111c857600081556001016111cd565b600067ffffffffffffffff8311156111fb576111fb611cd0565b61120e601f8401601f1916602001611b79565b905082815283838301111561122257600080fd5b828260208301376000602084830101529392505050565b80356001600160a01b03811681146102db57600080fd5b600082601f830112611260578081fd5b8135602061127561127083611ba3565b611b79565b8281528181019085830183850287018401881015611291578586fd5b855b858110156112af57813584529284019290840190600101611293565b5090979650505050505050565b600082601f8301126112cc578081fd5b6112db838335602085016111e1565b9392505050565b6000602082840312156112f3578081fd5b6112db82611239565b6000806040838503121561130e578081fd5b61131783611239565b915061132560208401611239565b90509250929050565b600080600080600060a08688031215611345578081fd5b61134e86611239565b945061135c60208701611239565b9350604086013567ffffffffffffffff80821115611378578283fd5b61138489838a01611250565b94506060880135915080821115611399578283fd5b6113a589838a01611250565b935060808801359150808211156113ba578283fd5b506113c7888289016112bc565b9150509295509295909350565b600080600080600060a086880312156113eb578081fd5b6113f486611239565b945061140260208701611239565b93506040860135925060608601359150608086013567ffffffffffffffff81111561142b578182fd5b6113c7888289016112bc565b60008060408385031215611449578182fd5b61145283611239565b915060208301358015158114611466578182fd5b809150509250929050565b60008060408385031215611483578182fd5b61148c83611239565b946020939093013593505050565b6000806000606084860312156114ae578283fd5b6114b784611239565b925060208401359150604084013567ffffffffffffffff8111156114d9578182fd5b8401601f810186136114e9578182fd5b6114f8868235602084016111e1565b9150509250925092565b60008060408385031215611514578182fd5b823567ffffffffffffffff8082111561152b578384fd5b818501915085601f83011261153e578384fd5b8135602061154e61127083611ba3565b82815281810190858301838502870184018b101561156a578889fd5b8896505b848710156115935761157f81611239565b83526001969096019591830191830161156e565b50965050860135925050808211156115a9578283fd5b506115b685828601611250565b9150509250929050565b6000602082840312156115d1578081fd5b81356112db81611d91565b6000602082840312156115ed578081fd5b81516112db81611d91565b600060208284031215611609578081fd5b5035919050565b6000815180845260208085019450808401835b8381101561163f57815187529582019590820190600101611623565b509495945050505050565b60008151808452611662816020860160208601611c0a565b601f01601f19169290920160200192915050565b60008351611688818460208801611c0a565b83519083019061169c818360208801611c0a565b01949350505050565b6001600160a01b0391909116815260200190565b6001600160a01b0386811682528516602082015260a0604082018190526000906116e590830186611610565b82810360608401526116f78186611610565b9050828103608084015261170b818561164a565b98975050505050505050565b6001600160a01b03868116825285166020820152604081018490526060810183905260a0608082018190526000906117519083018461164a565b979650505050505050565b6000602082526112db6020830184611610565b6000604082526117826040830185611610565b82810360208401526117948185611610565b95945050505050565b901515815260200190565b6000602082526112db602083018461164a565b60208082526034908201527f455243313135353a207472616e7366657220746f206e6f6e20455243313135356040820152732932b1b2b4bb32b91034b6b83632b6b2b73a32b960611b606082015260800190565b60208082526028908201527f455243313135353a204552433131353552656365697665722072656a656374656040820152676420746f6b656e7360c01b606082015260800190565b6020808252602b908201527f455243313135353a2062616c616e636520717565727920666f7220746865207a60408201526a65726f206164647265737360a81b606082015260800190565b60208082526026908201527f4f776e61626c653a206e6577206f776e657220697320746865207a65726f206160408201526564647265737360d01b606082015260800190565b60208082526029908201527f455243313135353a2063616c6c6572206973206e6f74206f776e6572206e6f7260408201526808185c1c1c9bdd995960ba1b606082015260800190565b60208082526025908201527f455243313135353a207472616e7366657220746f20746865207a65726f206164604082015264647265737360d81b606082015260800190565b60208082526032908201527f455243313135353a207472616e736665722063616c6c6572206973206e6f74206040820152711bdddb995c881b9bdc88185c1c1c9bdd995960721b606082015260800190565b6020808252602a908201527f455243313135353a20696e73756666696369656e742062616c616e636520666f60408201526939103a3930b739b332b960b11b606082015260800190565b6020808252818101527f4f776e61626c653a2063616c6c6572206973206e6f7420746865206f776e6572604082015260600190565b60208082526029908201527f455243313135353a2073657474696e6720617070726f76616c20737461747573604082015268103337b91039b2b63360b91b606082015260800190565b60208082526029908201527f455243313135353a206163636f756e747320616e6420696473206c656e677468604082015268040dad2e6dac2e8c6d60bb1b606082015260800190565b60208082526028908201527f455243313135353a2069647320616e6420616d6f756e7473206c656e677468206040820152670dad2e6dac2e8c6d60c31b606082015260800190565b60208082526021908201527f455243313135353a206d696e7420746f20746865207a65726f206164647265736040820152607360f81b606082015260800190565b90815260200190565b918252602082015260400190565b60405181810167ffffffffffffffff81118282101715611b9b57611b9b611cd0565b604052919050565b600067ffffffffffffffff821115611bbd57611bbd611cd0565b5060209081020190565b60008219821115611bda57611bda611ca4565b500190565b600082611bee57611bee611cba565b500490565b600082821015611c0557611c05611ca4565b500390565b60005b83811015611c25578181015183820152602001611c0d565b83811115611c34576000848401525b50505050565b600281046001821680611c4e57607f821691505b60208210811415611c6f57634e487b7160e01b600052602260045260246000fd5b50919050565b6000600019821415611c8957611c89611ca4565b5060010190565b600082611c9f57611c9f611cba565b500690565b634e487b7160e01b600052601160045260246000fd5b634e487b7160e01b600052601260045260246000fd5b634e487b7160e01b600052604160045260246000fd5b60e01c90565b600060443d1015611cfc5761050c565b600481823e6308c379a0611d108251611ce6565b14611d1a5761050c565b6040513d600319016004823e80513d67ffffffffffffffff8160248401118184111715611d4a575050505061050c565b82840192508251915080821115611d64575050505061050c565b503d83016020828401011115611d7c5750505061050c565b601f01601f1916810160200160405291505090565b6001600160e01b0319811681146107c257600080fdfea2646970667358221220f01a6a210e3294d423965be67467893409d1e11b97b86e7a54332a83e1751dff64736f6c63430008000033",
  "devdoc": {
    "kind": "dev",
    "methods": {
      "balanceOf(address,uint256)": {
        "details": "See {IERC1155-balanceOf}. Requirements: - `account` cannot be the zero address."
      },
      "balanceOfBatch(address[],uint256[])": {
        "details": "See {IERC1155-balanceOfBatch}. Requirements: - `accounts` and `ids` must have the same length."
      },
      "baseURI()": {
        "details": "Returns the base URI set via {_setBaseURI}. This will be automatically added as a prefix in {tokenURI} to each token's URI, or to the token ID if no specific URI is set for that token ID."
      },
      "exists(uint256)": {
        "details": "Indicates weither any token exist with a given id, or not."
      },
      "isApprovedForAll(address,address)": {
        "details": "See {IERC1155-isApprovedForAll}."
      },
      "owner()": {
        "details": "Returns the address of the current owner."
      },
      "renounceOwnership()": {
        "details": "Leaves the contract without owner. It will not be possible to call `onlyOwner` functions anymore. Can only be called by the current owner. NOTE: Renouncing ownership will leave the contract without an owner, thereby removing any functionality that is only available to the owner."
      },
      "safeBatchTransferFrom(address,address,uint256[],uint256[],bytes)": {
        "details": "See {IERC1155-safeBatchTransferFrom}."
      },
      "safeTransferFrom(address,address,uint256,uint256,bytes)": {
        "details": "See {IERC1155-safeTransferFrom}."
      },
      "setApprovalForAll(address,bool)": {
        "details": "See {IERC1155-setApprovalForAll}."
      },
      "supportsInterface(bytes4)": {
        "details": "See {IERC165-supportsInterface}."
      },
      "totalSupply(uint256)": {
        "details": "Total amount of tokens in with a given id."
      },
      "transferOwnership(address)": {
        "details": "Transfers ownership of the contract to a new account (`newOwner`). Can only be called by the current owner."
      }
    },
    "version": 1
  },
  "userdoc": {
    "kind": "user",
    "methods": {},
    "version": 1
  },
  "storageLayout": {
    "storage": [
      {
        "astId": 129,
        "contract": "contracts/FungyProofKeys.sol:FungyProofKeys",
        "label": "_balances",
        "offset": 0,
        "slot": "0",
        "type": "t_mapping(t_uint256,t_mapping(t_address,t_uint256))"
      },
      {
        "astId": 135,
        "contract": "contracts/FungyProofKeys.sol:FungyProofKeys",
        "label": "_operatorApprovals",
        "offset": 0,
        "slot": "1",
        "type": "t_mapping(t_address,t_mapping(t_address,t_bool))"
      },
      {
        "astId": 137,
        "contract": "contracts/FungyProofKeys.sol:FungyProofKeys",
        "label": "_uri",
        "offset": 0,
        "slot": "2",
        "type": "t_string_storage"
      },
      {
        "astId": 1357,
        "contract": "contracts/FungyProofKeys.sol:FungyProofKeys",
        "label": "_totalSupply",
        "offset": 0,
        "slot": "3",
        "type": "t_mapping(t_uint256,t_uint256)"
      },
      {
        "astId": 3300,
        "contract": "contracts/FungyProofKeys.sol:FungyProofKeys",
        "label": "_tokenURIs",
        "offset": 0,
        "slot": "4",
        "type": "t_mapping(t_uint256,t_string_storage)"
      },
      {
        "astId": 3302,
        "contract": "contracts/FungyProofKeys.sol:FungyProofKeys",
        "label": "_baseURI",
        "offset": 0,
        "slot": "5",
        "type": "t_string_storage"
      },
      {
        "astId": 7,
        "contract": "contracts/FungyProofKeys.sol:FungyProofKeys",
        "label": "_owner",
        "offset": 0,
        "slot": "6",
        "type": "t_address"
      },
      {
        "astId": 3565,
        "contract": "contracts/FungyProofKeys.sol:FungyProofKeys",
        "label": "_tokenIds",
        "offset": 0,
        "slot": "7",
        "type": "t_struct(Counter)2980_storage"
      }
    ],
    "types": {
      "t_address": {
        "encoding": "inplace",
        "label": "address",
        "numberOfBytes": "20"
      },
      "t_bool": {
        "encoding": "inplace",
        "label": "bool",
        "numberOfBytes": "1"
      },
      "t_mapping(t_address,t_bool)": {
        "encoding": "mapping",
        "key": "t_address",
        "label": "mapping(address => bool)",
        "numberOfBytes": "32",
        "value": "t_bool"
      },
      "t_mapping(t_address,t_mapping(t_address,t_bool))": {
        "encoding": "mapping",
        "key": "t_address",
        "label": "mapping(address => mapping(address => bool))",
        "numberOfBytes": "32",
        "value": "t_mapping(t_address,t_bool)"
      },
      "t_mapping(t_address,t_uint256)": {
        "encoding": "mapping",
        "key": "t_address",
        "label": "mapping(address => uint256)",
        "numberOfBytes": "32",
        "value": "t_uint256"
      },
      "t_mapping(t_uint256,t_mapping(t_address,t_uint256))": {
        "encoding": "mapping",
        "key": "t_uint256",
        "label": "mapping(uint256 => mapping(address => uint256))",
        "numberOfBytes": "32",
        "value": "t_mapping(t_address,t_uint256)"
      },
      "t_mapping(t_uint256,t_string_storage)": {
        "encoding": "mapping",
        "key": "t_uint256",
        "label": "mapping(uint256 => string)",
        "numberOfBytes": "32",
        "value": "t_string_storage"
      },
      "t_mapping(t_uint256,t_uint256)": {
        "encoding": "mapping",
        "key": "t_uint256",
        "label": "mapping(uint256 => uint256)",
        "numberOfBytes": "32",
        "value": "t_uint256"
      },
      "t_string_storage": {
        "encoding": "bytes",
        "label": "string",
        "numberOfBytes": "32"
      },
      "t_struct(Counter)2980_storage": {
        "encoding": "inplace",
        "label": "struct Counters.Counter",
        "members": [
          {
            "astId": 2979,
            "contract": "contracts/FungyProofKeys.sol:FungyProofKeys",
            "label": "_value",
            "offset": 0,
            "slot": "0",
            "type": "t_uint256"
          }
        ],
        "numberOfBytes": "32"
      },
      "t_uint256": {
        "encoding": "inplace",
        "label": "uint256",
        "numberOfBytes": "32"
      }
    }
  }
}