{
  "address": "0x4Ae6736d3c542E15fe57a898EC7bD068131Af046",
  "abi": [
    {
      "anonymous": false,
      "inputs": [
        {
          "indexed": true,
          "internalType": "address",
          "name": "account",
          "type": "address"
        },
        {
          "indexed": true,
          "internalType": "address",
          "name": "operator",
          "type": "address"
        },
        {
          "indexed": false,
          "internalType": "bool",
          "name": "approved",
          "type": "bool"
        }
      ],
      "name": "ApprovalForAll",
      "type": "event"
    },
    {
      "anonymous": false,
      "inputs": [
        {
          "indexed": true,
          "internalType": "address",
          "name": "operator",
          "type": "address"
        },
        {
          "indexed": true,
          "internalType": "address",
          "name": "contractAddress",
          "type": "address"
        },
        {
          "indexed": true,
          "internalType": "uint256",
          "name": "tokenId",
          "type": "uint256"
        },
        {
          "indexed": false,
          "internalType": "uint256",
          "name": "enrichmentId",
          "type": "uint256"
        },
        {
          "indexed": false,
          "internalType": "string",
          "name": "uri",
          "type": "string"
        }
      ],
      "name": "Bind",
      "type": "event"
    },
    {
      "anonymous": false,
      "inputs": [
        {
          "indexed": false,
          "internalType": "address",
          "name": "owner",
          "type": "address"
        },
        {
          "indexed": false,
          "internalType": "string",
          "name": "name",
          "type": "string"
        },
        {
          "indexed": false,
          "internalType": "string",
          "name": "symbol",
          "type": "string"
        }
      ],
      "name": "CreateFungyProofEnrichments",
      "type": "event"
    },
    {
      "anonymous": false,
      "inputs": [
        {
          "indexed": true,
          "internalType": "address",
          "name": "previousOwner",
          "type": "address"
        },
        {
          "indexed": true,
          "internalType": "address",
          "name": "newOwner",
          "type": "address"
        }
      ],
      "name": "OwnershipTransferred",
      "type": "event"
    },
    {
      "anonymous": false,
      "inputs": [
        {
          "indexed": true,
          "internalType": "address",
          "name": "operator",
          "type": "address"
        },
        {
          "indexed": true,
          "internalType": "uint256",
          "name": "enrichmentId",
          "type": "uint256"
        }
      ],
      "name": "Purchase",
      "type": "event"
    },
    {
      "anonymous": false,
      "inputs": [
        {
          "indexed": true,
          "internalType": "address",
          "name": "operator",
          "type": "address"
        },
        {
          "indexed": true,
          "internalType": "address",
          "name": "from",
          "type": "address"
        },
        {
          "indexed": true,
          "internalType": "address",
          "name": "to",
          "type": "address"
        },
        {
          "indexed": false,
          "internalType": "uint256[]",
          "name": "ids",
          "type": "uint256[]"
        },
        {
          "indexed": false,
          "internalType": "uint256[]",
          "name": "values",
          "type": "uint256[]"
        }
      ],
      "name": "TransferBatch",
      "type": "event"
    },
    {
      "anonymous": false,
      "inputs": [
        {
          "indexed": true,
          "internalType": "address",
          "name": "operator",
          "type": "address"
        },
        {
          "indexed": true,
          "internalType": "address",
          "name": "from",
          "type": "address"
        },
        {
          "indexed": true,
          "internalType": "address",
          "name": "to",
          "type": "address"
        },
        {
          "indexed": false,
          "internalType": "uint256",
          "name": "id",
          "type": "uint256"
        },
        {
          "indexed": false,
          "internalType": "uint256",
          "name": "value",
          "type": "uint256"
        }
      ],
      "name": "TransferSingle",
      "type": "event"
    },
    {
      "anonymous": false,
      "inputs": [
        {
          "indexed": false,
          "internalType": "string",
          "name": "value",
          "type": "string"
        },
        {
          "indexed": true,
          "internalType": "uint256",
          "name": "id",
          "type": "uint256"
        }
      ],
      "name": "URI",
      "type": "event"
    },
    {
      "anonymous": false,
      "inputs": [
        {
          "indexed": true,
          "internalType": "address",
          "name": "operator",
          "type": "address"
        },
        {
          "indexed": true,
          "internalType": "address",
          "name": "contractAddress",
          "type": "address"
        },
        {
          "indexed": true,
          "internalType": "uint256",
          "name": "tokenId",
          "type": "uint256"
        },
        {
          "indexed": false,
          "internalType": "uint256",
          "name": "enrichmentId",
          "type": "uint256"
        }
      ],
      "name": "Unbind",
      "type": "event"
    },
    {
      "inputs": [
        {
          "internalType": "string",
          "name": "_name",
          "type": "string"
        },
        {
          "internalType": "string",
          "name": "_symbol",
          "type": "string"
        },
        {
          "internalType": "string",
          "name": "baseURI",
          "type": "string"
        }
      ],
      "name": "__FungyProofEnrichments_init",
      "outputs": [],
      "stateMutability": "nonpayable",
      "type": "function"
    },
    {
      "inputs": [
        {
          "internalType": "address",
          "name": "account",
          "type": "address"
        },
        {
          "internalType": "uint256",
          "name": "id",
          "type": "uint256"
        }
      ],
      "name": "balanceOf",
      "outputs": [
        {
          "internalType": "uint256",
          "name": "",
          "type": "uint256"
        }
      ],
      "stateMutability": "view",
      "type": "function"
    },
    {
      "inputs": [
        {
          "internalType": "address[]",
          "name": "accounts",
          "type": "address[]"
        },
        {
          "internalType": "uint256[]",
          "name": "ids",
          "type": "uint256[]"
        }
      ],
      "name": "balanceOfBatch",
      "outputs": [
        {
          "internalType": "uint256[]",
          "name": "",
          "type": "uint256[]"
        }
      ],
      "stateMutability": "view",
      "type": "function"
    },
    {
      "inputs": [],
      "name": "baseURI",
      "outputs": [
        {
          "internalType": "string",
          "name": "",
          "type": "string"
        }
      ],
      "stateMutability": "view",
      "type": "function"
    },
    {
      "inputs": [
        {
          "internalType": "address",
          "name": "contractAddress",
          "type": "address"
        },
        {
          "internalType": "uint256",
          "name": "tokenId",
          "type": "uint256"
        },
        {
          "internalType": "uint256",
          "name": "enrichmentId",
          "type": "uint256"
        },
        {
          "internalType": "string",
          "name": "uri",
          "type": "string"
        }
      ],
      "name": "bind",
      "outputs": [],
      "stateMutability": "nonpayable",
      "type": "function"
    },
    {
      "inputs": [
        {
          "internalType": "address",
          "name": "contractAddress",
          "type": "address"
        },
        {
          "internalType": "uint256",
          "name": "tokenId",
          "type": "uint256"
        },
        {
          "internalType": "uint256",
          "name": "enrichmentId",
          "type": "uint256"
        }
      ],
      "name": "enrichmentBalanceOf",
      "outputs": [
        {
          "internalType": "uint256",
          "name": "",
          "type": "uint256"
        }
      ],
      "stateMutability": "view",
      "type": "function"
    },
    {
      "inputs": [
        {
          "internalType": "address",
          "name": "contractAddress",
          "type": "address"
        },
        {
          "internalType": "uint256",
          "name": "tokenId",
          "type": "uint256"
        },
        {
          "internalType": "uint256",
          "name": "enrichmentId",
          "type": "uint256"
        }
      ],
      "name": "enrichmentURI",
      "outputs": [
        {
          "internalType": "string",
          "name": "",
          "type": "string"
        }
      ],
      "stateMutability": "view",
      "type": "function"
    },
    {
      "inputs": [
        {
          "internalType": "uint256",
          "name": "id",
          "type": "uint256"
        }
      ],
      "name": "exists",
      "outputs": [
        {
          "internalType": "bool",
          "name": "",
          "type": "bool"
        }
      ],
      "stateMutability": "view",
      "type": "function"
    },
    {
      "inputs": [
        {
          "internalType": "address",
          "name": "account",
          "type": "address"
        },
        {
          "internalType": "address",
          "name": "operator",
          "type": "address"
        }
      ],
      "name": "isApprovedForAll",
      "outputs": [
        {
          "internalType": "bool",
          "name": "",
          "type": "bool"
        }
      ],
      "stateMutability": "view",
      "type": "function"
    },
    {
      "inputs": [
        {
          "internalType": "uint256",
          "name": "enrichmentId",
          "type": "uint256"
        }
      ],
      "name": "isPermanent",
      "outputs": [
        {
          "internalType": "bool",
          "name": "",
          "type": "bool"
        }
      ],
      "stateMutability": "view",
      "type": "function"
    },
    {
      "inputs": [
        {
          "internalType": "address",
          "name": "to",
          "type": "address"
        },
        {
          "internalType": "uint256",
          "name": "amount",
          "type": "uint256"
        },
        {
          "internalType": "string",
          "name": "uri",
          "type": "string"
        },
        {
          "internalType": "uint256",
          "name": "price",
          "type": "uint256"
        },
        {
          "internalType": "bool",
          "name": "permanent",
          "type": "bool"
        }
      ],
      "name": "mint",
      "outputs": [],
      "stateMutability": "nonpayable",
      "type": "function"
    },
    {
      "inputs": [
        {
          "internalType": "address",
          "name": "to",
          "type": "address"
        },
        {
          "internalType": "uint256[]",
          "name": "amounts",
          "type": "uint256[]"
        },
        {
          "internalType": "string[]",
          "name": "uris",
          "type": "string[]"
        },
        {
          "internalType": "uint256[]",
          "name": "prices",
          "type": "uint256[]"
        },
        {
          "internalType": "bool[]",
          "name": "permanents",
          "type": "bool[]"
        }
      ],
      "name": "mintBatch",
      "outputs": [],
      "stateMutability": "nonpayable",
      "type": "function"
    },
    {
      "inputs": [],
      "name": "name",
      "outputs": [
        {
          "internalType": "string",
          "name": "",
          "type": "string"
        }
      ],
      "stateMutability": "view",
      "type": "function"
    },
    {
      "inputs": [
        {
          "internalType": "address",
          "name": "",
          "type": "address"
        },
        {
          "internalType": "address",
          "name": "",
          "type": "address"
        },
        {
          "internalType": "uint256[]",
          "name": "",
          "type": "uint256[]"
        },
        {
          "internalType": "uint256[]",
          "name": "",
          "type": "uint256[]"
        },
        {
          "internalType": "bytes",
          "name": "",
          "type": "bytes"
        }
      ],
      "name": "onERC1155BatchReceived",
      "outputs": [
        {
          "internalType": "bytes4",
          "name": "",
          "type": "bytes4"
        }
      ],
      "stateMutability": "nonpayable",
      "type": "function"
    },
    {
      "inputs": [
        {
          "internalType": "address",
          "name": "",
          "type": "address"
        },
        {
          "internalType": "address",
          "name": "",
          "type": "address"
        },
        {
          "internalType": "uint256",
          "name": "",
          "type": "uint256"
        },
        {
          "internalType": "uint256",
          "name": "",
          "type": "uint256"
        },
        {
          "internalType": "bytes",
          "name": "",
          "type": "bytes"
        }
      ],
      "name": "onERC1155Received",
      "outputs": [
        {
          "internalType": "bytes4",
          "name": "",
          "type": "bytes4"
        }
      ],
      "stateMutability": "nonpayable",
      "type": "function"
    },
    {
      "inputs": [],
      "name": "owner",
      "outputs": [
        {
          "internalType": "address",
          "name": "",
          "type": "address"
        }
      ],
      "stateMutability": "view",
      "type": "function"
    },
    {
      "inputs": [],
      "name": "payee",
      "outputs": [
        {
          "internalType": "address",
          "name": "",
          "type": "address"
        }
      ],
      "stateMutability": "view",
      "type": "function"
    },
    {
      "inputs": [
        {
          "internalType": "address",
          "name": "dest",
          "type": "address"
        }
      ],
      "name": "payments",
      "outputs": [
        {
          "internalType": "uint256",
          "name": "",
          "type": "uint256"
        }
      ],
      "stateMutability": "view",
      "type": "function"
    },
    {
      "inputs": [
        {
          "internalType": "uint256",
          "name": "enrichmentId",
          "type": "uint256"
        }
      ],
      "name": "priceOf",
      "outputs": [
        {
          "internalType": "uint256",
          "name": "",
          "type": "uint256"
        }
      ],
      "stateMutability": "view",
      "type": "function"
    },
    {
      "inputs": [
        {
          "internalType": "uint256",
          "name": "enrichmentId",
          "type": "uint256"
        }
      ],
      "name": "purchase",
      "outputs": [],
      "stateMutability": "payable",
      "type": "function"
    },
    {
      "inputs": [
        {
          "internalType": "uint256",
          "name": "enrichmentId",
          "type": "uint256"
        },
        {
          "internalType": "address",
          "name": "contractAddress",
          "type": "address"
        },
        {
          "internalType": "uint256",
          "name": "tokenId",
          "type": "uint256"
        },
        {
          "internalType": "string",
          "name": "uri",
          "type": "string"
        }
      ],
      "name": "purchaseAndBind",
      "outputs": [],
      "stateMutability": "payable",
      "type": "function"
    },
    {
      "inputs": [],
      "name": "renounceOwnership",
      "outputs": [],
      "stateMutability": "nonpayable",
      "type": "function"
    },
    {
      "inputs": [
        {
          "internalType": "address",
          "name": "from",
          "type": "address"
        },
        {
          "internalType": "address",
          "name": "to",
          "type": "address"
        },
        {
          "internalType": "uint256[]",
          "name": "ids",
          "type": "uint256[]"
        },
        {
          "internalType": "uint256[]",
          "name": "amounts",
          "type": "uint256[]"
        },
        {
          "internalType": "bytes",
          "name": "data",
          "type": "bytes"
        }
      ],
      "name": "safeBatchTransferFrom",
      "outputs": [],
      "stateMutability": "nonpayable",
      "type": "function"
    },
    {
      "inputs": [
        {
          "internalType": "address",
          "name": "from",
          "type": "address"
        },
        {
          "internalType": "address",
          "name": "to",
          "type": "address"
        },
        {
          "internalType": "uint256",
          "name": "id",
          "type": "uint256"
        },
        {
          "internalType": "uint256",
          "name": "amount",
          "type": "uint256"
        },
        {
          "internalType": "bytes",
          "name": "data",
          "type": "bytes"
        }
      ],
      "name": "safeTransferFrom",
      "outputs": [],
      "stateMutability": "nonpayable",
      "type": "function"
    },
    {
      "inputs": [
        {
          "internalType": "address",
          "name": "operator",
          "type": "address"
        },
        {
          "internalType": "bool",
          "name": "approved",
          "type": "bool"
        }
      ],
      "name": "setApprovalForAll",
      "outputs": [],
      "stateMutability": "nonpayable",
      "type": "function"
    },
    {
      "inputs": [
        {
          "internalType": "address",
          "name": "contractAddress",
          "type": "address"
        },
        {
          "internalType": "string",
          "name": "ownerOfFunc",
          "type": "string"
        }
      ],
      "name": "setOwnerOfFunction",
      "outputs": [],
      "stateMutability": "nonpayable",
      "type": "function"
    },
    {
      "inputs": [
        {
          "internalType": "address",
          "name": "payee_",
          "type": "address"
        }
      ],
      "name": "setPayee",
      "outputs": [],
      "stateMutability": "nonpayable",
      "type": "function"
    },
    {
      "inputs": [
        {
          "internalType": "bytes4",
          "name": "interfaceId",
          "type": "bytes4"
        }
      ],
      "name": "supportsInterface",
      "outputs": [
        {
          "internalType": "bool",
          "name": "",
          "type": "bool"
        }
      ],
      "stateMutability": "view",
      "type": "function"
    },
    {
      "inputs": [],
      "name": "symbol",
      "outputs": [
        {
          "internalType": "string",
          "name": "",
          "type": "string"
        }
      ],
      "stateMutability": "view",
      "type": "function"
    },
    {
      "inputs": [
        {
          "internalType": "uint256",
          "name": "id",
          "type": "uint256"
        }
      ],
      "name": "totalSupply",
      "outputs": [
        {
          "internalType": "uint256",
          "name": "",
          "type": "uint256"
        }
      ],
      "stateMutability": "view",
      "type": "function"
    },
    {
      "inputs": [
        {
          "internalType": "address",
          "name": "newOwner",
          "type": "address"
        }
      ],
      "name": "transferOwnership",
      "outputs": [],
      "stateMutability": "nonpayable",
      "type": "function"
    },
    {
      "inputs": [
        {
          "internalType": "address",
          "name": "contractAddress",
          "type": "address"
        },
        {
          "internalType": "uint256",
          "name": "tokenId",
          "type": "uint256"
        },
        {
          "internalType": "uint256",
          "name": "enrichmentId",
          "type": "uint256"
        }
      ],
      "name": "unbind",
      "outputs": [],
      "stateMutability": "nonpayable",
      "type": "function"
    },
    {
      "inputs": [
        {
          "internalType": "uint256",
          "name": "id",
          "type": "uint256"
        }
      ],
      "name": "uri",
      "outputs": [
        {
          "internalType": "string",
          "name": "",
          "type": "string"
        }
      ],
      "stateMutability": "view",
      "type": "function"
    },
    {
      "inputs": [
        {
          "internalType": "address payable",
          "name": "payee",
          "type": "address"
        }
      ],
      "name": "withdrawPayments",
      "outputs": [],
      "stateMutability": "nonpayable",
      "type": "function"
    }
  ],
  "transactionHash": "0x4973b72a222ed751ace5e8a453fa87b0a76566a3d395eddcefff111098db4efa",
  "args": [],
  "solcInputHash": "6cbbd882022da47c5f0d298f805df9cd",
  "bytecode": "0x608060405234801561001057600080fd5b50614332806100206000396000f3fe6080604052600436106101f85760003560e01c8063715018a61161010d578063b9186d7d116100a0578063e985e9c51161006f578063e985e9c514610642578063efef39a11461068b578063f23a6e611461069e578063f242432a146106ca578063f2fde38b146106ea57600080fd5b8063b9186d7d14610582578063bc197c81146105b0578063bd85b039146105f5578063e2982c211461062257600080fd5b80639ef0c789116100dc5780639ef0c789146104d6578063a22cb465146104f6578063a57ed18f14610516578063ae90b2131461056357600080fd5b8063715018a61461045957806374b6802d1461046e5780638da5cb5b1461048e57806395d89b41146104c157600080fd5b806337a0ff27116101905780634f558e791161015f5780634f558e79146103b557806360220f37146103e4578063603074b614610404578063670d07b4146104245780636c0360eb1461044457600080fd5b806337a0ff2714610335578063410459ad146103485780634e1273f4146103685780634f16d1dd1461039557600080fd5b80632ba2dedd116101cc5780632ba2dedd146102a25780632eb2c2d6146102d357806331b3eb94146102f55780633416e9141461031557600080fd5b8062fdd58e146101fd57806301ffc9a71461023057806306fdde03146102605780630e89341c14610282575b600080fd5b34801561020957600080fd5b5061021d610218366004613167565b61070a565b6040519081526020015b60405180910390f35b34801561023c57600080fd5b5061025061024b366004613359565b6107a3565b6040519015158152602001610227565b34801561026c57600080fd5b506102756107b4565b6040516102279190613661565b34801561028e57600080fd5b5061027561029d366004613414565b610843565b3480156102ae57600080fd5b506102506102bd366004613414565b60009081526101ca602052604090205460ff1690565b3480156102df57600080fd5b506102f36102ee366004612eac565b61084e565b005b34801561030157600080fd5b506102f3610310366004612e51565b6108e5565b34801561032157600080fd5b50610275610330366004613203565b610941565b6102f3610343366004613444565b610a02565b34801561035457600080fd5b506102f3610363366004612e51565b610a1d565b34801561037457600080fd5b50610388610383366004613297565b610ade565b6040516102279190613620565b3480156103a157600080fd5b506102f36103b0366004613237565b610c3f565b3480156103c157600080fd5b506102506103d0366004613414565b600090815260fb6020526040902054151590565b3480156103f057600080fd5b506102f36103ff366004612fbb565b610e6c565b34801561041057600080fd5b506102f361041f366004613391565b611110565b34801561043057600080fd5b506102f361043f366004613192565b6111c4565b34801561045057600080fd5b506102756112e8565b34801561046557600080fd5b506102f361137b565b34801561047a57600080fd5b506102f361048936600461311a565b6113b2565b34801561049a57600080fd5b50610160546001600160a01b03165b6040516001600160a01b039091168152602001610227565b3480156104cd57600080fd5b5061027561140c565b3480156104e257600080fd5b506102f36104f1366004613203565b61141a565b34801561050257600080fd5b506102f36105113660046130e6565b6115ba565b34801561052257600080fd5b5061021d610531366004613203565b60009081526101cb602090815260408083206001600160a01b0395909516835293815283822092825291909152205490565b34801561056f57600080fd5b506101ce546001600160a01b03166104a9565b34801561058e57600080fd5b5061021d61059d366004613414565b60009081526101c9602052604090205490565b3480156105bc57600080fd5b506105dc6105cb366004612eac565b63bc197c8160e01b95945050505050565b6040516001600160e01b03199091168152602001610227565b34801561060157600080fd5b5061021d610610366004613414565b600090815260fb602052604090205490565b34801561062e57600080fd5b5061021d61063d366004612e51565b611691565b34801561064e57600080fd5b5061025061065d366004612e74565b6001600160a01b03918216600090815260ca6020908152604080832093909416825291909152205460ff1690565b6102f3610699366004613414565b611710565b3480156106aa57600080fd5b506105dc6106b9366004612f55565b63f23a6e6160e01b95945050505050565b3480156106d657600080fd5b506102f36106e5366004612f55565b6118dd565b3480156106f657600080fd5b506102f3610705366004612e51565b611964565b60006001600160a01b03831661077b5760405162461bcd60e51b815260206004820152602b60248201527f455243313135353a2062616c616e636520717565727920666f7220746865207a60448201526a65726f206164647265737360a81b60648201526084015b60405180910390fd5b50600090815260c9602090815260408083206001600160a01b03949094168352929052205490565b60006107ae82611a00565b92915050565b6101c780546107c2906139a1565b80601f01602080910402602001604051908101604052809291908181526020018280546107ee906139a1565b801561083b5780601f106108105761010080835404028352916020019161083b565b820191906000526020600020905b81548152906001019060200180831161081e57829003601f168201915b505050505081565b60606107ae82611a40565b6001600160a01b03851633148061086a575061086a853361065d565b6108d15760405162461bcd60e51b815260206004820152603260248201527f455243313135353a207472616e736665722063616c6c6572206973206e6f74206044820152711bdddb995c881b9bdc88185c1c1c9bdd995960721b6064820152608401610772565b6108de8585858585611b49565b5050505050565b61012d546040516351cff8d960e01b81526001600160a01b038381166004830152909116906351cff8d990602401600060405180830381600087803b15801561092d57600080fd5b505af11580156108de573d6000803e3d6000fd5b60008181526101cc602090815260408083206001600160a01b03871684528252808320858452909152902080546060919061097b906139a1565b80601f01602080910402602001604051908101604052809291908181526020018280546109a7906139a1565b80156109f45780601f106109c9576101008083540402835291602001916109f4565b820191906000526020600020905b8154815290600101906020018083116109d757829003601f168201915b505050505090509392505050565b610a0b84611710565b610a1783838684610c3f565b50505050565b610160546001600160a01b03163314610a485760405162461bcd60e51b8152600401610772906137e8565b6001600160a01b038116610abb5760405162461bcd60e51b815260206004820152603460248201527f46756e677950726f6f66456e726963686d656e74733a2073657420706179656560448201527320746f20746865207a65726f206164647265737360601b6064820152608401610772565b6101ce80546001600160a01b0319166001600160a01b0392909216919091179055565b60608151835114610b435760405162461bcd60e51b815260206004820152602960248201527f455243313135353a206163636f756e747320616e6420696473206c656e677468604482015268040dad2e6dac2e8c6d60bb1b6064820152608401610772565b600083516001600160401b03811115610b6c57634e487b7160e01b600052604160045260246000fd5b604051908082528060200260200182016040528015610b95578160200160208202803683370190505b50905060005b8451811015610c3757610bfc858281518110610bc757634e487b7160e01b600052603260045260246000fd5b6020026020010151858381518110610bef57634e487b7160e01b600052603260045260246000fd5b602002602001015161070a565b828281518110610c1c57634e487b7160e01b600052603260045260246000fd5b6020908102919091010152610c3081613a08565b9050610b9b565b509392505050565b60008281526101cb602090815260408083206001600160a01b0388168452825280832086845290915290205415610cde5760405162461bcd60e51b815260206004820152603860248201527f46756e677950726f6f66456e726963686d656e74733a20746f6b656e20616c7260448201527f6561647920686173207468697320656e726963686d656e7400000000000000006064820152608401610772565b336000610ceb828561070a565b11610d565760405162461bcd60e51b815260206004820152603560248201527f46756e677950726f6f66456e726963686d656e74733a2073656e64657220646f604482015274195cc81b9bdd081bdddb88195b9c9a58da1b595b9d605a1b6064820152608401610772565b610d61858583611cfc565b610d7d5760405162461bcd60e51b81526004016107729061381d565b610d9a813085600160405180602001604052806000815250611fc2565b60008381526101cc602090815260408083206001600160a01b0389168452825280832087845282529091208351610dd392850190612c46565b5060008381526101cb602090815260408083206001600160a01b038916845282528083208784529091528120805460019290610e10908490613932565b9250508190555083856001600160a01b0316826001600160a01b03167fa4626119b66f7bc11c6a74a5147d03101be293669e55b66aedbec975e23237318686604051610e5d9291906138f6565b60405180910390a45050505050565b610160546001600160a01b03163314610e975760405162461bcd60e51b8152600401610772906137e8565b6001600160a01b038516610ebd5760405162461bcd60e51b8152600401610772906136bc565b82518451148015610ecf575081518351145b8015610edc575080518251145b610f425760405162461bcd60e51b815260206004820152603160248201527f46756e677950726f6f66456e726963686d656e74733a20706172616d65746572604482015270040d8cadccee8d0e640dad2e6dac2e8c6d607b1b6064820152608401610772565b600084516001600160401b03811115610f6b57634e487b7160e01b600052604160045260246000fd5b604051908082528060200260200182016040528015610f94578160200160208202803683370190505b50905060005b85518110156110ec57610fb26101c680546001019055565b6000610fbe6101c65490565b905080838381518110610fe157634e487b7160e01b600052603260045260246000fd5b602002602001018181525050600086838151811061100f57634e487b7160e01b600052603260045260246000fd5b602002602001015151111561104f5761104f8187848151811061104257634e487b7160e01b600052603260045260246000fd5b60200260200101516120ec565b84828151811061106f57634e487b7160e01b600052603260045260246000fd5b60200260200101516101c96000838152602001908152602001600020819055508382815181106110af57634e487b7160e01b600052603260045260246000fd5b60209081029190910181015160009283526101ca9091526040909120805460ff1916911515919091179055806110e481613a08565b915050610f9a565b5061110886828760405180602001604052806000815250612151565b505050505050565b600054610100900460ff1680611129575060005460ff16155b6111455760405162461bcd60e51b815260040161077290613750565b600054610100900460ff16158015611167576000805461ffff19166101011790555b6111728484846121f0565b7fc171a1558b0bdbc31560c11059259b491fa4db1389df2e68cbb1cb1ce6c389533385856040516111a5939291906135e0565b60405180910390a18015610a17576000805461ff001916905550505050565b610160546001600160a01b031633146111ef5760405162461bcd60e51b8152600401610772906137e8565b6001600160a01b0385166112155760405162461bcd60e51b8152600401610772906136bc565b600084116112775760405162461bcd60e51b815260206004820152602960248201527f46756e677950726f6f66456e726963686d656e74733a20616d6f756e74206d7560448201526807374206265203e20360bc1b6064820152608401610772565b6112866101c680546001019055565b60006112926101c65490565b8451909150156112a6576112a681856120ec565b60008181526101c9602090815260408083208690556101ca8252808320805460ff1916861515179055805191820190529081526111089087908390889061223b565b606061019380546112f8906139a1565b80601f0160208091040260200160405190810160405280929190818152602001828054611324906139a1565b80156113715780601f1061134657610100808354040283529160200191611371565b820191906000526020600020905b81548152906001019060200180831161135457829003601f168201915b5050505050905090565b610160546001600160a01b031633146113a65760405162461bcd60e51b8152600401610772906137e8565b6113b06000612270565b565b610160546001600160a01b031633146113dd5760405162461bcd60e51b8152600401610772906137e8565b6001600160a01b03821660009081526101cd60209081526040909120825161140792840190612c46565b505050565b6101c880546107c2906139a1565b60008181526101ca602052604090205460ff1615156001141561149b5760405162461bcd60e51b815260206004820152603360248201527f46756e677950726f6f66456e726963686d656e74733a20656e726963686d656e6044820152721d0818d85b9b9bdd081899481d5b989bdd5b99606a1b6064820152608401610772565b336114a7848483611cfc565b6114c35760405162461bcd60e51b81526004016107729061381d565b60408051602080820180845260008084528681526101cc83528481206001600160a01b038a168252835284812088825290925292902090516115059290612c46565b5060008281526101cb602090815260408083206001600160a01b03881684528252808320868452909152812080546001929061154290849061395e565b92505081905550611566308284600160405180602001604052806000815250611fc2565b82846001600160a01b0316826001600160a01b03167fea1ef714143bae6ce41724c3ef4c1f09618d80035f24a133b1065face55dcaa3856040516115ac91815260200190565b60405180910390a450505050565b336001600160a01b03831614156116255760405162461bcd60e51b815260206004820152602960248201527f455243313135353a2073657474696e6720617070726f76616c20737461747573604482015268103337b91039b2b63360b91b6064820152608401610772565b33600081815260ca602090815260408083206001600160a01b03871680855290835292819020805460ff191686151590811790915590519081529192917f17307eab39ab6107e8899845ad3d59bd9653f200f220920489ca2b5937696c31910160405180910390a35050565b61012d546040516371d4ed8d60e11b81526001600160a01b038381166004830152600092169063e3a9db1a9060240160206040518083038186803b1580156116d857600080fd5b505afa1580156116ec573d6000803e3d6000fd5b505050506040513d601f19601f820116820180604052508101906107ae919061342c565b610160546101ce5433916001600160a01b0390811691168061178a5760405162461bcd60e51b815260206004820152602d60248201527f46756e677950726f6f66456e726963686d656e74733a2070617965652068617360448201526c081b9bdd081899595b881cd95d609a1b6064820152608401610772565b6000611796838661070a565b116118095760405162461bcd60e51b815260206004820152603f60248201527f46756e677950726f6f66456e726963686d656e74733a20656e726963686d656e60448201527f74206973206e6f7420617661696c61626c6520666f72207075726368617365006064820152608401610772565b60008481526101c96020526040902054341461187a5760405162461bcd60e51b815260206004820152602a60248201527f46756e677950726f6f66456e726963686d656e74733a2077726f6e67207061796044820152696d656e742076616c756560b01b6064820152608401610772565b61188481346122c3565b6118a1828486600160405180602001604052806000815250611fc2565b60405184906001600160a01b038516907f2499a5330ab0979cc612135e7883ebc3cd5c9f7a8508f042540c34723348f63290600090a350505050565b6001600160a01b0385163314806118f957506118f9853361065d565b6119575760405162461bcd60e51b815260206004820152602960248201527f455243313135353a2063616c6c6572206973206e6f74206f776e6572206e6f7260448201526808185c1c1c9bdd995960ba1b6064820152608401610772565b6108de8585858585611fc2565b610160546001600160a01b0316331461198f5760405162461bcd60e51b8152600401610772906137e8565b6001600160a01b0381166119f45760405162461bcd60e51b815260206004820152602660248201527f4f776e61626c653a206e6577206f776e657220697320746865207a65726f206160448201526564647265737360d01b6064820152608401610772565b6119fd81612270565b50565b60006001600160e01b03198216636cdb3d1360e11b1480611a3157506001600160e01b031982166303a24d0760e21b145b806107ae57506107ae82612320565b60008181526101926020526040812080546060929190611a5f906139a1565b80601f0160208091040260200160405190810160405280929190818152602001828054611a8b906139a1565b8015611ad85780601f10611aad57610100808354040283529160200191611ad8565b820191906000526020600020905b815481529060010190602001808311611abb57829003601f168201915b505050505090506000611ae96112e8565b9050805160001415611afc575092915050565b815115611b2e578082604051602001611b1692919061350e565b60405160208183030381529060405292505050919050565b80611b3885612355565b604051602001611b1692919061350e565b8151835114611b6a5760405162461bcd60e51b81526004016107729061386d565b6001600160a01b038416611b905760405162461bcd60e51b81526004016107729061370b565b3360005b8451811015611c96576000858281518110611bbf57634e487b7160e01b600052603260045260246000fd5b602002602001015190506000858381518110611beb57634e487b7160e01b600052603260045260246000fd5b602090810291909101810151600084815260c9835260408082206001600160a01b038e168352909352919091205490915081811015611c3c5760405162461bcd60e51b81526004016107729061379e565b600083815260c9602090815260408083206001600160a01b038e8116855292528083208585039055908b16825281208054849290611c7b908490613932565b9250508190555050505080611c8f90613a08565b9050611b94565b50846001600160a01b0316866001600160a01b0316826001600160a01b03167f4a39dc06d4c0dbc64b70af90fd698a233a518aa5d07e595d983b8c0526c8f7fb8787604051611ce6929190613633565b60405180910390a4611108818787878787612476565b60006001600160a01b038416611d6c5760405162461bcd60e51b815260206004820152602f60248201527f46756e677950726f6f66456e726963686d656e74733a20696e76616c6964206360448201526e6f6e7472616374206164647265737360881b6064820152608401610772565b6001600160a01b03841660009081526101cd602052604081208054611d90906139a1565b15159050611dc6576040518060400160405280601081526020016f6f776e65724f662875696e743235362960801b815250611e69565b6001600160a01b03851660009081526101cd602052604090208054611dea906139a1565b80601f0160208091040260200160405190810160405280929190818152602001828054611e16906139a1565b8015611e635780601f10611e3857610100808354040283529160200191611e63565b820191906000526020600020905b815481529060010190602001808311611e4657829003601f168201915b50505050505b905060008185604051602401611e8191815260200190565b60408051601f198184030181529082905291611e9c916134f2565b60405180910390206001600160e01b0319166020820180516001600160e01b0383818316178352505050509050600080876001600160a01b031683604051611ee491906134f2565b6000604051808303816000865af19150503d8060008114611f21576040519150601f19603f3d011682016040523d82523d6000602084013e611f26565b606091505b509150915081611f975760405162461bcd60e51b815260206004820152603660248201527f46756e677950726f6f66456e726963686d656e74733a20756e61626c6520746f604482015275103232ba32b936b4b732903a37b5b2b71037bbb732b960511b6064820152608401610772565b856001600160a01b0316611fac826020015190565b6001600160a01b03161498975050505050505050565b6001600160a01b038416611fe85760405162461bcd60e51b81526004016107729061370b565b33612001818787611ff8886125e1565b6108de886125e1565b600084815260c9602090815260408083206001600160a01b038a168452909152902054838110156120445760405162461bcd60e51b81526004016107729061379e565b600085815260c9602090815260408083206001600160a01b038b8116855292528083208785039055908816825281208054869290612083908490613932565b909155505060408051868152602081018690526001600160a01b03808916928a821692918616917fc3d58168c5ae7397731d063d5bbf3d657854427343f4c083240f7aacaa2d0f62910160405180910390a46120e382888888888861263a565b50505050505050565b600082815261019260209081526040909120825161210c92840190612c46565b50817f6bb7ff708619ba0610cba295a58592e0451dee2622938c8755667688daf3529b61213884611a40565b6040516121459190613661565b60405180910390a25050565b61215d84848484612704565b60005b83518110156108de5782818151811061218957634e487b7160e01b600052603260045260246000fd5b602002602001015160fb60008684815181106121b557634e487b7160e01b600052603260045260246000fd5b6020026020010151815260200190815260200160002060008282546121da9190613932565b909155506121e9905081613a08565b9050612160565b6121f861286c565b6122006128e0565b6122086129e3565b6122106129e3565b61222860405180602001604052806000815250612a4d565b6122328383612ac3565b61140781612b5a565b61224784848484612b6e565b600083815260fb602052604081208054849290612265908490613932565b909155505050505050565b61016080546001600160a01b038381166001600160a01b0319831681179093556040519116919082907f8be0079c531659141344cd1fd0a4f28419497f9722a3daafe3b4186f6b6457e090600090a35050565b61012d5460405163f340fa0160e01b81526001600160a01b0384811660048301529091169063f340fa019083906024016000604051808303818588803b15801561230c57600080fd5b505af11580156120e3573d6000803e3d6000fd5b60006001600160e01b03198216630271189760e51b14806107ae57506301ffc9a760e01b6001600160e01b03198316146107ae565b6060816123795750506040805180820190915260018152600360fc1b602082015290565b8160005b81156123a3578061238d81613a08565b915061239c9050600a8361394a565b915061237d565b6000816001600160401b038111156123cb57634e487b7160e01b600052604160045260246000fd5b6040519080825280601f01601f1916602001820160405280156123f5576020820181803683370190505b5090505b841561246e5761240a60018361395e565b9150612417600a86613a23565b612422906030613932565b60f81b81838151811061244557634e487b7160e01b600052603260045260246000fd5b60200101906001600160f81b031916908160001a905350612467600a8661394a565b94506123f9565b949350505050565b6001600160a01b0384163b156111085760405163bc197c8160e01b81526001600160a01b0385169063bc197c81906124ba908990899088908890889060040161353d565b602060405180830381600087803b1580156124d457600080fd5b505af1925050508015612504575060408051601f3d908101601f1916820190925261250191810190613375565b60015b6125b157612510613a79565b806308c379a0141561254a5750612525613a91565b80612530575061254c565b8060405162461bcd60e51b81526004016107729190613661565b505b60405162461bcd60e51b815260206004820152603460248201527f455243313135353a207472616e7366657220746f206e6f6e20455243313135356044820152732932b1b2b4bb32b91034b6b83632b6b2b73a32b960611b6064820152608401610772565b6001600160e01b0319811663bc197c8160e01b146120e35760405162461bcd60e51b815260040161077290613674565b6040805160018082528183019092526060916000919060208083019080368337019050509050828160008151811061262957634e487b7160e01b600052603260045260246000fd5b602090810291909101015292915050565b6001600160a01b0384163b156111085760405163f23a6e6160e01b81526001600160a01b0385169063f23a6e619061267e908990899088908890889060040161359b565b602060405180830381600087803b15801561269857600080fd5b505af19250505080156126c8575060408051601f3d908101601f191682019092526126c591810190613375565b60015b6126d457612510613a79565b6001600160e01b0319811663f23a6e6160e01b146120e35760405162461bcd60e51b815260040161077290613674565b6001600160a01b03841661272a5760405162461bcd60e51b8152600401610772906138b5565b815183511461274b5760405162461bcd60e51b81526004016107729061386d565b3360005b84518110156128045783818151811061277857634e487b7160e01b600052603260045260246000fd5b602002602001015160c960008784815181106127a457634e487b7160e01b600052603260045260246000fd5b602002602001015181526020019081526020016000206000886001600160a01b03166001600160a01b0316815260200190815260200160002060008282546127ec9190613932565b909155508190506127fc81613a08565b91505061274f565b50846001600160a01b031660006001600160a01b0316826001600160a01b03167f4a39dc06d4c0dbc64b70af90fd698a233a518aa5d07e595d983b8c0526c8f7fb8787604051612855929190613633565b60405180910390a46108de81600087878787612476565b600054610100900460ff1680612885575060005460ff16155b6128a15760405162461bcd60e51b815260040161077290613750565b600054610100900460ff161580156128c3576000805461ffff19166101011790555b6128cc33612270565b80156119fd576000805461ff001916905550565b600054610100900460ff16806128f9575060005460ff16155b6129155760405162461bcd60e51b815260040161077290613750565b600054610100900460ff16158015612937576000805461ffff19166101011790555b60405161294390612cca565b604051809103906000f08015801561295f573d6000803e3d6000fd5b5061012d80546001600160a01b0319166001600160a01b039290921691821790556040805163204a7f0760e21b81529051638129fc1c9160048082019260009290919082900301818387803b1580156129b757600080fd5b505af11580156129cb573d6000803e3d6000fd5b5050505080156119fd576000805461ff001916905550565b600054610100900460ff16806129fc575060005460ff16155b612a185760405162461bcd60e51b815260040161077290613750565b600054610100900460ff161580156128cc576000805461ffff191661010117905580156119fd576000805461ff001916905550565b600054610100900460ff1680612a66575060005460ff16155b612a825760405162461bcd60e51b815260040161077290613750565b600054610100900460ff16158015612aa4576000805461ffff19166101011790555b612aad82612c37565b8015612abf576000805461ff00191690555b5050565b600054610100900460ff1680612adc575060005460ff16155b612af85760405162461bcd60e51b815260040161077290613750565b600054610100900460ff16158015612b1a576000805461ffff19166101011790555b8251612b2e906101c7906020860190612c46565b508151612b43906101c8906020850190612c46565b508015611407576000805461ff0019169055505050565b8051612abf90610193906020840190612c46565b6001600160a01b038416612b945760405162461bcd60e51b8152600401610772906138b5565b33612ba581600087611ff8886125e1565b600084815260c9602090815260408083206001600160a01b038916845290915281208054859290612bd7908490613932565b909155505060408051858152602081018590526001600160a01b0380881692600092918516917fc3d58168c5ae7397731d063d5bbf3d657854427343f4c083240f7aacaa2d0f62910160405180910390a46108de8160008787878761263a565b8051612abf9060cb9060208401905b828054612c52906139a1565b90600052602060002090601f016020900481019282612c745760008555612cba565b82601f10612c8d57805160ff1916838001178555612cba565b82800160010185558215612cba579182015b82811115612cba578251825591602001919060010190612c9f565b50612cc6929150612cd7565b5090565b6107b780613b4683390190565b5b80821115612cc65760008155600101612cd8565b600082601f830112612cfc578081fd5b81356020612d098261390f565b604051612d1682826139dc565b8381528281019150858301600585901b87018401881015612d35578586fd5b855b85811015612d5a57612d4882612dce565b84529284019290840190600101612d37565b5090979650505050505050565b600082601f830112612d77578081fd5b81356020612d848261390f565b604051612d9182826139dc565b8381528281019150858301600585901b87018401881015612db0578586fd5b855b85811015612d5a57813584529284019290840190600101612db2565b80358015158114612dde57600080fd5b919050565b600082601f830112612df3578081fd5b81356001600160401b03811115612e0c57612e0c613a63565b604051612e23601f8301601f1916602001826139dc565b818152846020838601011115612e37578283fd5b816020850160208301379081016020019190915292915050565b600060208284031215612e62578081fd5b8135612e6d81613b1a565b9392505050565b60008060408385031215612e86578081fd5b8235612e9181613b1a565b91506020830135612ea181613b1a565b809150509250929050565b600080600080600060a08688031215612ec3578081fd5b8535612ece81613b1a565b94506020860135612ede81613b1a565b935060408601356001600160401b0380821115612ef9578283fd5b612f0589838a01612d67565b94506060880135915080821115612f1a578283fd5b612f2689838a01612d67565b93506080880135915080821115612f3b578283fd5b50612f4888828901612de3565b9150509295509295909350565b600080600080600060a08688031215612f6c578283fd5b8535612f7781613b1a565b94506020860135612f8781613b1a565b9350604086013592506060860135915060808601356001600160401b03811115612faf578182fd5b612f4888828901612de3565b600080600080600060a08688031215612fd2578283fd5b612fdc8635613b1a565b853594506020808701356001600160401b0380821115612ffa578586fd5b6130068a838b01612d67565b9650604089013591508082111561301b578586fd5b818901915089601f83011261302e578586fd5b81356130398161390f565b60405161304682826139dc565b8281528581019150848601600584901b860187018e101561306557898afd5b895b8481101561309d57858235111561307c578a8bfd5b61308b8f8984358a0101612de3565b84529287019290870190600101613067565b5090985050505060608901359250808311156130b7578384fd5b6130c38a848b01612d67565b945060808901359250808311156130d8578384fd5b5050612f4888828901612cec565b600080604083850312156130f8578182fd5b823561310381613b1a565b915061311160208401612dce565b90509250929050565b6000806040838503121561312c578182fd5b823561313781613b1a565b915060208301356001600160401b03811115613151578182fd5b61315d85828601612de3565b9150509250929050565b60008060408385031215613179578182fd5b823561318481613b1a565b946020939093013593505050565b600080600080600060a086880312156131a9578283fd5b85356131b481613b1a565b94506020860135935060408601356001600160401b038111156131d5578384fd5b6131e188828901612de3565b935050606086013591506131f760808701612dce565b90509295509295909350565b600080600060608486031215613217578081fd5b833561322281613b1a565b95602085013595506040909401359392505050565b6000806000806080858703121561324c578182fd5b843561325781613b1a565b9350602085013592506040850135915060608501356001600160401b0381111561327f578182fd5b61328b87828801612de3565b91505092959194509250565b600080604083850312156132a9578182fd5b82356001600160401b03808211156132bf578384fd5b818501915085601f8301126132d2578384fd5b813560206132df8261390f565b6040516132ec82826139dc565b8381528281019150858301600585901b870184018b101561330b578889fd5b8896505b8487101561333657803561332281613b1a565b83526001969096019591830191830161330f565b509650508601359250508082111561334c578283fd5b5061315d85828601612d67565b60006020828403121561336a578081fd5b8135612e6d81613b2f565b600060208284031215613386578081fd5b8151612e6d81613b2f565b6000806000606084860312156133a5578081fd5b83356001600160401b03808211156133bb578283fd5b6133c787838801612de3565b945060208601359150808211156133dc578283fd5b6133e887838801612de3565b935060408601359150808211156133fd578283fd5b5061340a86828701612de3565b9150509250925092565b600060208284031215613425578081fd5b5035919050565b60006020828403121561343d578081fd5b5051919050565b60008060008060808587031215613459578182fd5b84359350602085013561346b81613b1a565b92506040850135915060608501356001600160401b0381111561327f578182fd5b6000815180845260208085019450808401835b838110156134bb5781518752958201959082019060010161349f565b509495945050505050565b600081518084526134de816020860160208601613975565b601f01601f19169290920160200192915050565b60008251613504818460208701613975565b9190910192915050565b60008351613520818460208801613975565b835190830190613534818360208801613975565b01949350505050565b6001600160a01b0386811682528516602082015260a0604082018190526000906135699083018661348c565b828103606084015261357b818661348c565b9050828103608084015261358f81856134c6565b98975050505050505050565b6001600160a01b03868116825285166020820152604081018490526060810183905260a0608082018190526000906135d5908301846134c6565b979650505050505050565b6001600160a01b0384168152606060208201819052600090613604908301856134c6565b828103604084015261361681856134c6565b9695505050505050565b602081526000612e6d602083018461348c565b604081526000613646604083018561348c565b8281036020840152613658818561348c565b95945050505050565b602081526000612e6d60208301846134c6565b60208082526028908201527f455243313135353a204552433131353552656365697665722072656a656374656040820152676420746f6b656e7360c01b606082015260800190565b6020808252602f908201527f46756e677950726f6f66456e726963686d656e74733a206d696e7420746f207460408201526e6865207a65726f206164647265737360881b606082015260800190565b60208082526025908201527f455243313135353a207472616e7366657220746f20746865207a65726f206164604082015264647265737360d81b606082015260800190565b6020808252602e908201527f496e697469616c697a61626c653a20636f6e747261637420697320616c72656160408201526d191e481a5b9a5d1a585b1a5e995960921b606082015260800190565b6020808252602a908201527f455243313135353a20696e73756666696369656e742062616c616e636520666f60408201526939103a3930b739b332b960b11b606082015260800190565b6020808252818101527f4f776e61626c653a2063616c6c6572206973206e6f7420746865206f776e6572604082015260600190565b60208082526030908201527f46756e677950726f6f66456e726963686d656e74733a2073656e64657220646f60408201526f32b9903737ba1037bbb7103a37b5b2b760811b606082015260800190565b60208082526028908201527f455243313135353a2069647320616e6420616d6f756e7473206c656e677468206040820152670dad2e6dac2e8c6d60c31b606082015260800190565b60208082526021908201527f455243313135353a206d696e7420746f20746865207a65726f206164647265736040820152607360f81b606082015260800190565b82815260406020820152600061246e60408301846134c6565b60006001600160401b0382111561392857613928613a63565b5060051b60200190565b6000821982111561394557613945613a37565b500190565b60008261395957613959613a4d565b500490565b60008282101561397057613970613a37565b500390565b60005b83811015613990578181015183820152602001613978565b83811115610a175750506000910152565b600181811c908216806139b557607f821691505b602082108114156139d657634e487b7160e01b600052602260045260246000fd5b50919050565b601f8201601f191681016001600160401b0381118282101715613a0157613a01613a63565b6040525050565b6000600019821415613a1c57613a1c613a37565b5060010190565b600082613a3257613a32613a4d565b500690565b634e487b7160e01b600052601160045260246000fd5b634e487b7160e01b600052601260045260246000fd5b634e487b7160e01b600052604160045260246000fd5b600060033d1115613a8e57600481823e5160e01c5b90565b600060443d1015613a9f5790565b6040516003193d81016004833e81513d6001600160401b038160248401118184111715613ace57505050505090565b8285019150815181811115613ae65750505050505090565b843d8701016020828501011115613b005750505050505090565b613b0f602082860101876139dc565b509095945050505050565b6001600160a01b03811681146119fd57600080fd5b6001600160e01b0319811681146119fd57600080fdfe608060405234801561001057600080fd5b50610797806100206000396000f3fe6080604052600436106100705760003560e01c80638da5cb5b1161004e5780638da5cb5b146100c1578063e3a9db1a146100ee578063f2fde38b14610132578063f340fa011461015257600080fd5b806351cff8d914610075578063715018a6146100975780638129fc1c146100ac575b600080fd5b34801561008157600080fd5b50610095610090366004610682565b610165565b005b3480156100a357600080fd5b50610095610207565b3480156100b857600080fd5b5061009561023d565b3480156100cd57600080fd5b506033546040516001600160a01b0390911681526020015b60405180910390f35b3480156100fa57600080fd5b50610124610109366004610682565b6001600160a01b031660009081526065602052604090205490565b6040519081526020016100e5565b34801561013e57600080fd5b5061009561014d366004610682565b6102b1565b610095610160366004610682565b610349565b6033546001600160a01b031633146101985760405162461bcd60e51b815260040161018f906106f3565b60405180910390fd5b6001600160a01b03811660008181526065602052604081208054919055906101c090826103dd565b816001600160a01b03167f7084f5476618d8e60b11ef0d7d3f06914655adb8793e28ff7f018d4c76d505d5826040516101fb91815260200190565b60405180910390a25050565b6033546001600160a01b031633146102315760405162461bcd60e51b815260040161018f906106f3565b61023b60006104fb565b565b600054610100900460ff1680610256575060005460ff16155b6102725760405162461bcd60e51b815260040161018f906106a5565b600054610100900460ff16158015610294576000805461ffff19166101011790555b61029c61054d565b80156102ae576000805461ff00191690555b50565b6033546001600160a01b031633146102db5760405162461bcd60e51b815260040161018f906106f3565b6001600160a01b0381166103405760405162461bcd60e51b815260206004820152602660248201527f4f776e61626c653a206e6577206f776e657220697320746865207a65726f206160448201526564647265737360d01b606482015260840161018f565b6102ae816104fb565b6033546001600160a01b031633146103735760405162461bcd60e51b815260040161018f906106f3565b6001600160a01b03811660009081526065602052604081208054349283929161039d908490610728565b90915550506040518181526001600160a01b038316907f2da466a7b24304f47e87fa2e1e5a81b9831ce54fec19055ce277ca2f39ba42c4906020016101fb565b8047101561042d5760405162461bcd60e51b815260206004820152601d60248201527f416464726573733a20696e73756666696369656e742062616c616e6365000000604482015260640161018f565b6000826001600160a01b03168260405160006040518083038185875af1925050503d806000811461047a576040519150601f19603f3d011682016040523d82523d6000602084013e61047f565b606091505b50509050806104f65760405162461bcd60e51b815260206004820152603a60248201527f416464726573733a20756e61626c6520746f2073656e642076616c75652c207260448201527f6563697069656e74206d61792068617665207265766572746564000000000000606482015260840161018f565b505050565b603380546001600160a01b038381166001600160a01b0319831681179093556040519116919082907f8be0079c531659141344cd1fd0a4f28419497f9722a3daafe3b4186f6b6457e090600090a35050565b600054610100900460ff1680610566575060005460ff16155b6105825760405162461bcd60e51b815260040161018f906106a5565b600054610100900460ff161580156105a4576000805461ffff19166101011790555b6105ac6105b8565b6105b4610622565b61029c5b600054610100900460ff16806105d1575060005460ff16155b6105ed5760405162461bcd60e51b815260040161018f906106a5565b600054610100900460ff1615801561029c576000805461ffff191661010117905580156102ae576000805461ff001916905550565b600054610100900460ff168061063b575060005460ff16155b6106575760405162461bcd60e51b815260040161018f906106a5565b600054610100900460ff16158015610679576000805461ffff19166101011790555b61029c336104fb565b600060208284031215610693578081fd5b813561069e8161074c565b9392505050565b6020808252602e908201527f496e697469616c697a61626c653a20636f6e747261637420697320616c72656160408201526d191e481a5b9a5d1a585b1a5e995960921b606082015260800190565b6020808252818101527f4f776e61626c653a2063616c6c6572206973206e6f7420746865206f776e6572604082015260600190565b6000821982111561074757634e487b7160e01b81526011600452602481fd5b500190565b6001600160a01b03811681146102ae57600080fdfea2646970667358221220dccecec3e8575ab3581ba72d2d6a0ceef01663e771bbc7f4b5f9253cb96b707464736f6c63430008040033a264697066735822122077739991021de7ea0448486e522e0e91748113dbfb4a73210e13537e06dcaf6264736f6c63430008040033",
  "devdoc": {
    "kind": "dev",
    "methods": {
      "balanceOf(address,uint256)": {
        "details": "See {IERC1155-balanceOf}. Requirements: - `account` cannot be the zero address."
      },
      "balanceOfBatch(address[],uint256[])": {
        "details": "See {IERC1155-balanceOfBatch}. Requirements: - `accounts` and `ids` must have the same length."
      },
      "baseURI()": {
        "details": "Returns the base URI set via {_setBaseURI}. This will be automatically added as a prefix in {tokenURI} to each token's URI, or to the token ID if no specific URI is set for that token ID."
      },
      "exists(uint256)": {
        "details": "Indicates weither any token exist with a given id, or not."
      },
      "isApprovedForAll(address,address)": {
        "details": "See {IERC1155-isApprovedForAll}."
      },
      "owner()": {
        "details": "Returns the address of the current owner."
      },
      "payments(address)": {
        "details": "Returns the payments owed to an address.",
        "params": {
          "dest": "The creditor's address."
        }
      },
      "renounceOwnership()": {
        "details": "Leaves the contract without owner. It will not be possible to call `onlyOwner` functions anymore. Can only be called by the current owner. NOTE: Renouncing ownership will leave the contract without an owner, thereby removing any functionality that is only available to the owner."
      },
      "safeBatchTransferFrom(address,address,uint256[],uint256[],bytes)": {
        "details": "See {IERC1155-safeBatchTransferFrom}."
      },
      "safeTransferFrom(address,address,uint256,uint256,bytes)": {
        "details": "See {IERC1155-safeTransferFrom}."
      },
      "setApprovalForAll(address,bool)": {
        "details": "See {IERC1155-setApprovalForAll}."
      },
      "totalSupply(uint256)": {
        "details": "Total amount of tokens in with a given id."
      },
      "transferOwnership(address)": {
        "details": "Transfers ownership of the contract to a new account (`newOwner`). Can only be called by the current owner."
      },
      "withdrawPayments(address)": {
        "details": "Withdraw accumulated payments, forwarding all gas to the recipient. Note that _any_ account can call this function, not just the `payee`. This means that contracts unaware of the `PullPayment` protocol can still receive funds this way, by having a separate account call {withdrawPayments}. WARNING: Forwarding all gas opens the door to reentrancy vulnerabilities. Make sure you trust the recipient, or are either following the checks-effects-interactions pattern or using {ReentrancyGuard}.",
        "params": {
          "payee": "Whose payments will be withdrawn."
        }
      }
    },
    "version": 1
  },
  "userdoc": {
    "kind": "user",
    "methods": {},
    "version": 1
  },
  "storageLayout": {
    "storage": [
      {
        "astId": 130,
        "contract": "contracts/FungyProofEnrichments.sol:FungyProofEnrichments",
        "label": "_initialized",
        "offset": 0,
        "slot": "0",
        "type": "t_bool"
      },
      {
        "astId": 133,
        "contract": "contracts/FungyProofEnrichments.sol:FungyProofEnrichments",
        "label": "_initializing",
        "offset": 1,
        "slot": "0",
        "type": "t_bool"
      },
      {
        "astId": 2184,
        "contract": "contracts/FungyProofEnrichments.sol:FungyProofEnrichments",
        "label": "__gap",
        "offset": 0,
        "slot": "1",
        "type": "t_array(t_uint256)50_storage"
      },
      {
        "astId": 2640,
        "contract": "contracts/FungyProofEnrichments.sol:FungyProofEnrichments",
        "label": "__gap",
        "offset": 0,
        "slot": "51",
        "type": "t_array(t_uint256)50_storage"
      },
      {
        "astId": 1895,
        "contract": "contracts/FungyProofEnrichments.sol:FungyProofEnrichments",
        "label": "__gap",
        "offset": 0,
        "slot": "101",
        "type": "t_array(t_uint256)50_storage"
      },
      {
        "astId": 1836,
        "contract": "contracts/FungyProofEnrichments.sol:FungyProofEnrichments",
        "label": "__gap",
        "offset": 0,
        "slot": "151",
        "type": "t_array(t_uint256)50_storage"
      },
      {
        "astId": 285,
        "contract": "contracts/FungyProofEnrichments.sol:FungyProofEnrichments",
        "label": "_balances",
        "offset": 0,
        "slot": "201",
        "type": "t_mapping(t_uint256,t_mapping(t_address,t_uint256))"
      },
      {
        "astId": 291,
        "contract": "contracts/FungyProofEnrichments.sol:FungyProofEnrichments",
        "label": "_operatorApprovals",
        "offset": 0,
        "slot": "202",
        "type": "t_mapping(t_address,t_mapping(t_address,t_bool))"
      },
      {
        "astId": 293,
        "contract": "contracts/FungyProofEnrichments.sol:FungyProofEnrichments",
        "label": "_uri",
        "offset": 0,
        "slot": "203",
        "type": "t_string_storage"
      },
      {
        "astId": 1363,
        "contract": "contracts/FungyProofEnrichments.sol:FungyProofEnrichments",
        "label": "__gap",
        "offset": 0,
        "slot": "204",
        "type": "t_array(t_uint256)47_storage"
      },
      {
        "astId": 1561,
        "contract": "contracts/FungyProofEnrichments.sol:FungyProofEnrichments",
        "label": "_totalSupply",
        "offset": 0,
        "slot": "251",
        "type": "t_mapping(t_uint256,t_uint256)"
      },
      {
        "astId": 1742,
        "contract": "contracts/FungyProofEnrichments.sol:FungyProofEnrichments",
        "label": "__gap",
        "offset": 0,
        "slot": "252",
        "type": "t_array(t_uint256)49_storage"
      },
      {
        "astId": 180,
        "contract": "contracts/FungyProofEnrichments.sol:FungyProofEnrichments",
        "label": "_escrow",
        "offset": 0,
        "slot": "301",
        "type": "t_contract(EscrowUpgradeable)2595"
      },
      {
        "astId": 255,
        "contract": "contracts/FungyProofEnrichments.sol:FungyProofEnrichments",
        "label": "__gap",
        "offset": 0,
        "slot": "302",
        "type": "t_array(t_uint256)50_storage"
      },
      {
        "astId": 10,
        "contract": "contracts/FungyProofEnrichments.sol:FungyProofEnrichments",
        "label": "_owner",
        "offset": 0,
        "slot": "352",
        "type": "t_address"
      },
      {
        "astId": 123,
        "contract": "contracts/FungyProofEnrichments.sol:FungyProofEnrichments",
        "label": "__gap",
        "offset": 0,
        "slot": "353",
        "type": "t_array(t_uint256)49_storage"
      },
      {
        "astId": 2678,
        "contract": "contracts/FungyProofEnrichments.sol:FungyProofEnrichments",
        "label": "_tokenURIs",
        "offset": 0,
        "slot": "402",
        "type": "t_mapping(t_uint256,t_string_storage)"
      },
      {
        "astId": 2680,
        "contract": "contracts/FungyProofEnrichments.sol:FungyProofEnrichments",
        "label": "_baseURI",
        "offset": 0,
        "slot": "403",
        "type": "t_string_storage"
      },
      {
        "astId": 2814,
        "contract": "contracts/FungyProofEnrichments.sol:FungyProofEnrichments",
        "label": "__gap",
        "offset": 0,
        "slot": "404",
        "type": "t_array(t_uint256)50_storage"
      },
      {
        "astId": 2907,
        "contract": "contracts/FungyProofEnrichments.sol:FungyProofEnrichments",
        "label": "_tokenIds",
        "offset": 0,
        "slot": "454",
        "type": "t_struct(Counter)2191_storage"
      },
      {
        "astId": 2909,
        "contract": "contracts/FungyProofEnrichments.sol:FungyProofEnrichments",
        "label": "name",
        "offset": 0,
        "slot": "455",
        "type": "t_string_storage"
      },
      {
        "astId": 2911,
        "contract": "contracts/FungyProofEnrichments.sol:FungyProofEnrichments",
        "label": "symbol",
        "offset": 0,
        "slot": "456",
        "type": "t_string_storage"
      },
      {
        "astId": 2943,
        "contract": "contracts/FungyProofEnrichments.sol:FungyProofEnrichments",
        "label": "_prices",
        "offset": 0,
        "slot": "457",
        "type": "t_mapping(t_uint256,t_uint256)"
      },
      {
        "astId": 2947,
        "contract": "contracts/FungyProofEnrichments.sol:FungyProofEnrichments",
        "label": "_isPermanent",
        "offset": 0,
        "slot": "458",
        "type": "t_mapping(t_uint256,t_bool)"
      },
      {
        "astId": 2955,
        "contract": "contracts/FungyProofEnrichments.sol:FungyProofEnrichments",
        "label": "_enrichmentBalances",
        "offset": 0,
        "slot": "459",
        "type": "t_mapping(t_uint256,t_mapping(t_address,t_mapping(t_uint256,t_uint256)))"
      },
      {
        "astId": 2963,
        "contract": "contracts/FungyProofEnrichments.sol:FungyProofEnrichments",
        "label": "_enrichmentURIs",
        "offset": 0,
        "slot": "460",
        "type": "t_mapping(t_uint256,t_mapping(t_address,t_mapping(t_uint256,t_string_storage)))"
      },
      {
        "astId": 2967,
        "contract": "contracts/FungyProofEnrichments.sol:FungyProofEnrichments",
        "label": "_contractOwnerOfFunctions",
        "offset": 0,
        "slot": "461",
        "type": "t_mapping(t_address,t_string_storage)"
      },
      {
        "astId": 2969,
        "contract": "contracts/FungyProofEnrichments.sol:FungyProofEnrichments",
        "label": "_payee",
        "offset": 0,
        "slot": "462",
        "type": "t_address"
      },
      {
        "astId": 3661,
        "contract": "contracts/FungyProofEnrichments.sol:FungyProofEnrichments",
        "label": "__gap",
        "offset": 0,
        "slot": "463",
        "type": "t_array(t_uint256)50_storage"
      },
      {
        "astId": 2892,
        "contract": "contracts/FungyProofEnrichments.sol:FungyProofEnrichments",
        "label": "__gap",
        "offset": 0,
        "slot": "513",
        "type": "t_array(t_uint256)50_storage"
      }
    ],
    "types": {
      "t_address": {
        "encoding": "inplace",
        "label": "address",
        "numberOfBytes": "20"
      },
      "t_array(t_uint256)47_storage": {
        "base": "t_uint256",
        "encoding": "inplace",
        "label": "uint256[47]",
        "numberOfBytes": "1504"
      },
      "t_array(t_uint256)49_storage": {
        "base": "t_uint256",
        "encoding": "inplace",
        "label": "uint256[49]",
        "numberOfBytes": "1568"
      },
      "t_array(t_uint256)50_storage": {
        "base": "t_uint256",
        "encoding": "inplace",
        "label": "uint256[50]",
        "numberOfBytes": "1600"
      },
      "t_bool": {
        "encoding": "inplace",
        "label": "bool",
        "numberOfBytes": "1"
      },
      "t_contract(EscrowUpgradeable)2595": {
        "encoding": "inplace",
        "label": "contract EscrowUpgradeable",
        "numberOfBytes": "20"
      },
      "t_mapping(t_address,t_bool)": {
        "encoding": "mapping",
        "key": "t_address",
        "label": "mapping(address => bool)",
        "numberOfBytes": "32",
        "value": "t_bool"
      },
      "t_mapping(t_address,t_mapping(t_address,t_bool))": {
        "encoding": "mapping",
        "key": "t_address",
        "label": "mapping(address => mapping(address => bool))",
        "numberOfBytes": "32",
        "value": "t_mapping(t_address,t_bool)"
      },
      "t_mapping(t_address,t_mapping(t_uint256,t_string_storage))": {
        "encoding": "mapping",
        "key": "t_address",
        "label": "mapping(address => mapping(uint256 => string))",
        "numberOfBytes": "32",
        "value": "t_mapping(t_uint256,t_string_storage)"
      },
      "t_mapping(t_address,t_mapping(t_uint256,t_uint256))": {
        "encoding": "mapping",
        "key": "t_address",
        "label": "mapping(address => mapping(uint256 => uint256))",
        "numberOfBytes": "32",
        "value": "t_mapping(t_uint256,t_uint256)"
      },
      "t_mapping(t_address,t_string_storage)": {
        "encoding": "mapping",
        "key": "t_address",
        "label": "mapping(address => string)",
        "numberOfBytes": "32",
        "value": "t_string_storage"
      },
      "t_mapping(t_address,t_uint256)": {
        "encoding": "mapping",
        "key": "t_address",
        "label": "mapping(address => uint256)",
        "numberOfBytes": "32",
        "value": "t_uint256"
      },
      "t_mapping(t_uint256,t_bool)": {
        "encoding": "mapping",
        "key": "t_uint256",
        "label": "mapping(uint256 => bool)",
        "numberOfBytes": "32",
        "value": "t_bool"
      },
      "t_mapping(t_uint256,t_mapping(t_address,t_mapping(t_uint256,t_string_storage)))": {
        "encoding": "mapping",
        "key": "t_uint256",
        "label": "mapping(uint256 => mapping(address => mapping(uint256 => string)))",
        "numberOfBytes": "32",
        "value": "t_mapping(t_address,t_mapping(t_uint256,t_string_storage))"
      },
      "t_mapping(t_uint256,t_mapping(t_address,t_mapping(t_uint256,t_uint256)))": {
        "encoding": "mapping",
        "key": "t_uint256",
        "label": "mapping(uint256 => mapping(address => mapping(uint256 => uint256)))",
        "numberOfBytes": "32",
        "value": "t_mapping(t_address,t_mapping(t_uint256,t_uint256))"
      },
      "t_mapping(t_uint256,t_mapping(t_address,t_uint256))": {
        "encoding": "mapping",
        "key": "t_uint256",
        "label": "mapping(uint256 => mapping(address => uint256))",
        "numberOfBytes": "32",
        "value": "t_mapping(t_address,t_uint256)"
      },
      "t_mapping(t_uint256,t_string_storage)": {
        "encoding": "mapping",
        "key": "t_uint256",
        "label": "mapping(uint256 => string)",
        "numberOfBytes": "32",
        "value": "t_string_storage"
      },
      "t_mapping(t_uint256,t_uint256)": {
        "encoding": "mapping",
        "key": "t_uint256",
        "label": "mapping(uint256 => uint256)",
        "numberOfBytes": "32",
        "value": "t_uint256"
      },
      "t_string_storage": {
        "encoding": "bytes",
        "label": "string",
        "numberOfBytes": "32"
      },
      "t_struct(Counter)2191_storage": {
        "encoding": "inplace",
        "label": "struct CountersUpgradeable.Counter",
        "members": [
          {
            "astId": 2190,
            "contract": "contracts/FungyProofEnrichments.sol:FungyProofEnrichments",
            "label": "_value",
            "offset": 0,
            "slot": "0",
            "type": "t_uint256"
          }
        ],
        "numberOfBytes": "32"
      },
      "t_uint256": {
        "encoding": "inplace",
        "label": "uint256",
        "numberOfBytes": "32"
      }
    }
  }
}