{
  "address": "0x252EB367B1D918553d7a942B7fff68e79a9D547d",
  "abi": [
    {
      "inputs": [],
      "stateMutability": "nonpayable",
      "type": "constructor"
    },
    {
      "anonymous": false,
      "inputs": [
        {
          "indexed": true,
          "internalType": "address",
          "name": "account",
          "type": "address"
        },
        {
          "indexed": true,
          "internalType": "address",
          "name": "operator",
          "type": "address"
        },
        {
          "indexed": false,
          "internalType": "bool",
          "name": "approved",
          "type": "bool"
        }
      ],
      "name": "ApprovalForAll",
      "type": "event"
    },
    {
      "anonymous": false,
      "inputs": [
        {
          "indexed": true,
          "internalType": "address",
          "name": "previousOwner",
          "type": "address"
        },
        {
          "indexed": true,
          "internalType": "address",
          "name": "newOwner",
          "type": "address"
        }
      ],
      "name": "OwnershipTransferred",
      "type": "event"
    },
    {
      "anonymous": false,
      "inputs": [
        {
          "indexed": true,
          "internalType": "address",
          "name": "operator",
          "type": "address"
        },
        {
          "indexed": true,
          "internalType": "address",
          "name": "from",
          "type": "address"
        },
        {
          "indexed": true,
          "internalType": "address",
          "name": "to",
          "type": "address"
        },
        {
          "indexed": false,
          "internalType": "uint256[]",
          "name": "ids",
          "type": "uint256[]"
        },
        {
          "indexed": false,
          "internalType": "uint256[]",
          "name": "values",
          "type": "uint256[]"
        }
      ],
      "name": "TransferBatch",
      "type": "event"
    },
    {
      "anonymous": false,
      "inputs": [
        {
          "indexed": true,
          "internalType": "address",
          "name": "operator",
          "type": "address"
        },
        {
          "indexed": true,
          "internalType": "address",
          "name": "from",
          "type": "address"
        },
        {
          "indexed": true,
          "internalType": "address",
          "name": "to",
          "type": "address"
        },
        {
          "indexed": false,
          "internalType": "uint256",
          "name": "id",
          "type": "uint256"
        },
        {
          "indexed": false,
          "internalType": "uint256",
          "name": "value",
          "type": "uint256"
        }
      ],
      "name": "TransferSingle",
      "type": "event"
    },
    {
      "anonymous": false,
      "inputs": [
        {
          "indexed": false,
          "internalType": "string",
          "name": "value",
          "type": "string"
        },
        {
          "indexed": true,
          "internalType": "uint256",
          "name": "id",
          "type": "uint256"
        }
      ],
      "name": "URI",
      "type": "event"
    },
    {
      "inputs": [
        {
          "internalType": "address",
          "name": "account",
          "type": "address"
        },
        {
          "internalType": "uint256",
          "name": "id",
          "type": "uint256"
        }
      ],
      "name": "balanceOf",
      "outputs": [
        {
          "internalType": "uint256",
          "name": "",
          "type": "uint256"
        }
      ],
      "stateMutability": "view",
      "type": "function"
    },
    {
      "inputs": [
        {
          "internalType": "address[]",
          "name": "accounts",
          "type": "address[]"
        },
        {
          "internalType": "uint256[]",
          "name": "ids",
          "type": "uint256[]"
        }
      ],
      "name": "balanceOfBatch",
      "outputs": [
        {
          "internalType": "uint256[]",
          "name": "",
          "type": "uint256[]"
        }
      ],
      "stateMutability": "view",
      "type": "function"
    },
    {
      "inputs": [],
      "name": "baseURI",
      "outputs": [
        {
          "internalType": "string",
          "name": "",
          "type": "string"
        }
      ],
      "stateMutability": "view",
      "type": "function"
    },
    {
      "inputs": [
        {
          "internalType": "uint256",
          "name": "id",
          "type": "uint256"
        }
      ],
      "name": "exists",
      "outputs": [
        {
          "internalType": "bool",
          "name": "",
          "type": "bool"
        }
      ],
      "stateMutability": "view",
      "type": "function"
    },
    {
      "inputs": [
        {
          "internalType": "address",
          "name": "account",
          "type": "address"
        },
        {
          "internalType": "address",
          "name": "operator",
          "type": "address"
        }
      ],
      "name": "isApprovedForAll",
      "outputs": [
        {
          "internalType": "bool",
          "name": "",
          "type": "bool"
        }
      ],
      "stateMutability": "view",
      "type": "function"
    },
    {
      "inputs": [
        {
          "internalType": "address",
          "name": "_to",
          "type": "address"
        },
        {
          "internalType": "uint256",
          "name": "_amount",
          "type": "uint256"
        },
        {
          "internalType": "string",
          "name": "_uri",
          "type": "string"
        }
      ],
      "name": "mint",
      "outputs": [
        {
          "internalType": "uint256",
          "name": "",
          "type": "uint256"
        }
      ],
      "stateMutability": "nonpayable",
      "type": "function"
    },
    {
      "inputs": [],
      "name": "owner",
      "outputs": [
        {
          "internalType": "address",
          "name": "",
          "type": "address"
        }
      ],
      "stateMutability": "view",
      "type": "function"
    },
    {
      "inputs": [],
      "name": "renounceOwnership",
      "outputs": [],
      "stateMutability": "nonpayable",
      "type": "function"
    },
    {
      "inputs": [
        {
          "internalType": "address",
          "name": "from",
          "type": "address"
        },
        {
          "internalType": "address",
          "name": "to",
          "type": "address"
        },
        {
          "internalType": "uint256[]",
          "name": "ids",
          "type": "uint256[]"
        },
        {
          "internalType": "uint256[]",
          "name": "amounts",
          "type": "uint256[]"
        },
        {
          "internalType": "bytes",
          "name": "data",
          "type": "bytes"
        }
      ],
      "name": "safeBatchTransferFrom",
      "outputs": [],
      "stateMutability": "nonpayable",
      "type": "function"
    },
    {
      "inputs": [
        {
          "internalType": "address",
          "name": "from",
          "type": "address"
        },
        {
          "internalType": "address",
          "name": "to",
          "type": "address"
        },
        {
          "internalType": "uint256",
          "name": "id",
          "type": "uint256"
        },
        {
          "internalType": "uint256",
          "name": "amount",
          "type": "uint256"
        },
        {
          "internalType": "bytes",
          "name": "data",
          "type": "bytes"
        }
      ],
      "name": "safeTransferFrom",
      "outputs": [],
      "stateMutability": "nonpayable",
      "type": "function"
    },
    {
      "inputs": [
        {
          "internalType": "address",
          "name": "operator",
          "type": "address"
        },
        {
          "internalType": "bool",
          "name": "approved",
          "type": "bool"
        }
      ],
      "name": "setApprovalForAll",
      "outputs": [],
      "stateMutability": "nonpayable",
      "type": "function"
    },
    {
      "inputs": [
        {
          "internalType": "bytes4",
          "name": "interfaceId",
          "type": "bytes4"
        }
      ],
      "name": "supportsInterface",
      "outputs": [
        {
          "internalType": "bool",
          "name": "",
          "type": "bool"
        }
      ],
      "stateMutability": "view",
      "type": "function"
    },
    {
      "inputs": [
        {
          "internalType": "uint256",
          "name": "id",
          "type": "uint256"
        }
      ],
      "name": "totalSupply",
      "outputs": [
        {
          "internalType": "uint256",
          "name": "",
          "type": "uint256"
        }
      ],
      "stateMutability": "view",
      "type": "function"
    },
    {
      "inputs": [
        {
          "internalType": "address",
          "name": "newOwner",
          "type": "address"
        }
      ],
      "name": "transferOwnership",
      "outputs": [],
      "stateMutability": "nonpayable",
      "type": "function"
    },
    {
      "inputs": [
        {
          "internalType": "uint256",
          "name": "id",
          "type": "uint256"
        }
      ],
      "name": "uri",
      "outputs": [
        {
          "internalType": "string",
          "name": "",
          "type": "string"
        }
      ],
      "stateMutability": "view",
      "type": "function"
    }
  ],
  "transactionHash": "0x959a0fc0eb3d71706bea707091e571288cc6ede7a2426e6db61204063364893c",
  "args": [],
  "solcInputHash": "e61c5e85fe456942ee29b2e339f0e751",
  "bytecode": "0x60806040523480156200001157600080fd5b506040805160208101909152600081526200002c816200003e565b50620000383362000057565b6200018c565b805162000053906002906020840190620000a9565b5050565b600680546001600160a01b038381166001600160a01b0319831681179093556040519116919082907f8be0079c531659141344cd1fd0a4f28419497f9722a3daafe3b4186f6b6457e090600090a35050565b828054620000b7906200014f565b90600052602060002090601f016020900481019282620000db576000855562000126565b82601f10620000f657805160ff191683800117855562000126565b8280016001018555821562000126579182015b828111156200012657825182559160200191906001019062000109565b506200013492915062000138565b5090565b5b8082111562000134576000815560010162000139565b600181811c908216806200016457607f821691505b602082108114156200018657634e487b7160e01b600052602260045260246000fd5b50919050565b611c48806200019c6000396000f3fe608060405234801561001057600080fd5b50600436106100f45760003560e01c8063715018a611610097578063d3fc986411610066578063d3fc986414610217578063e985e9c51461022a578063f242432a14610266578063f2fde38b1461027957600080fd5b8063715018a6146101c15780638da5cb5b146101c9578063a22cb465146101e4578063bd85b039146101f757600080fd5b80632eb2c2d6116100d35780632eb2c2d6146101625780634e1273f4146101775780634f558e79146101975780636c0360eb146101b957600080fd5b8062fdd58e146100f957806301ffc9a71461011f5780630e89341c14610142575b600080fd5b61010c6101073660046115a6565b61028c565b6040519081526020015b60405180910390f35b61013261012d366004611702565b610323565b6040519015158152602001610116565b61015561015036600461173a565b610375565b60405161011691906118cb565b610175610170366004611463565b610380565b005b61018a610185366004611637565b610417565b604051610116919061188a565b6101326101a536600461173a565b600090815260036020526040902054151590565b610155610579565b61017561060b565b6006546040516001600160a01b039091168152602001610116565b6101756101f236600461156c565b610641565b61010c61020536600461173a565b60009081526003602052604090205490565b61010c6102253660046115cf565b610718565b610132610238366004611431565b6001600160a01b03918216600090815260016020908152604080832093909416825291909152205460ff1690565b610175610274366004611509565b61078d565b610175610287366004611417565b610814565b60006001600160a01b0383166102fd5760405162461bcd60e51b815260206004820152602b60248201527f455243313135353a2062616c616e636520717565727920666f7220746865207a60448201526a65726f206164647265737360a81b60648201526084015b60405180910390fd5b506000908152602081815260408083206001600160a01b03949094168352929052205490565b60006001600160e01b03198216636cdb3d1360e11b148061035457506001600160e01b031982166303a24d0760e21b145b8061036f57506301ffc9a760e01b6001600160e01b03198316145b92915050565b606061036f826108af565b6001600160a01b03851633148061039c575061039c8533610238565b6104035760405162461bcd60e51b815260206004820152603260248201527f455243313135353a207472616e736665722063616c6c6572206973206e6f74206044820152711bdddb995c881b9bdc88185c1c1c9bdd995960721b60648201526084016102f4565b61041085858585856109b7565b5050505050565b6060815183511461047c5760405162461bcd60e51b815260206004820152602960248201527f455243313135353a206163636f756e747320616e6420696473206c656e677468604482015268040dad2e6dac2e8c6d60bb1b60648201526084016102f4565b6000835167ffffffffffffffff8111156104a657634e487b7160e01b600052604160045260246000fd5b6040519080825280602002602001820160405280156104cf578160200160208202803683370190505b50905060005b84518110156105715761053685828151811061050157634e487b7160e01b600052603260045260246000fd5b602002602001015185838151811061052957634e487b7160e01b600052603260045260246000fd5b602002602001015161028c565b82828151811061055657634e487b7160e01b600052603260045260246000fd5b602090810291909101015261056a81611ae9565b90506104d5565b509392505050565b60606005805461058890611a81565b80601f01602080910402602001604051908101604052809291908181526020018280546105b490611a81565b80156106015780601f106105d657610100808354040283529160200191610601565b820191906000526020600020905b8154815290600101906020018083116105e457829003601f168201915b5050505050905090565b6006546001600160a01b031633146106355760405162461bcd60e51b81526004016102f4906119b5565b61063f6000610bb0565b565b336001600160a01b03831614156106ac5760405162461bcd60e51b815260206004820152602960248201527f455243313135353a2073657474696e6720617070726f76616c20737461747573604482015268103337b91039b2b63360b91b60648201526084016102f4565b3360008181526001602090815260408083206001600160a01b03871680855290835292819020805460ff191686151590811790915590519081529192917f17307eab39ab6107e8899845ad3d59bd9653f200f220920489ca2b5937696c31910160405180910390a35050565b6006546000906001600160a01b031633146107455760405162461bcd60e51b81526004016102f4906119b5565b610753600780546001019055565b600061075e60075490565b905061076a8184610c02565b61078585828660405180602001604052806000815250610c66565b949350505050565b6001600160a01b0385163314806107a957506107a98533610238565b6108075760405162461bcd60e51b815260206004820152602960248201527f455243313135353a2063616c6c6572206973206e6f74206f776e6572206e6f7260448201526808185c1c1c9bdd995960ba1b60648201526084016102f4565b6104108585858585610c9b565b6006546001600160a01b0316331461083e5760405162461bcd60e51b81526004016102f4906119b5565b6001600160a01b0381166108a35760405162461bcd60e51b815260206004820152602660248201527f4f776e61626c653a206e6577206f776e657220697320746865207a65726f206160448201526564647265737360d01b60648201526084016102f4565b6108ac81610bb0565b50565b6000818152600460205260408120805460609291906108cd90611a81565b80601f01602080910402602001604051908101604052809291908181526020018280546108f990611a81565b80156109465780601f1061091b57610100808354040283529160200191610946565b820191906000526020600020905b81548152906001019060200180831161092957829003601f168201915b505050505090506000610957610579565b905080516000141561096a575092915050565b81511561099c5780826040516020016109849291906117b8565b60405160208183030381529060405292505050919050565b806109a685610dc1565b6040516020016109849291906117b8565b8151835114610a195760405162461bcd60e51b815260206004820152602860248201527f455243313135353a2069647320616e6420616d6f756e7473206c656e677468206044820152670dad2e6dac2e8c6d60c31b60648201526084016102f4565b6001600160a01b038416610a3f5760405162461bcd60e51b81526004016102f490611926565b3360005b8451811015610b42576000858281518110610a6e57634e487b7160e01b600052603260045260246000fd5b602002602001015190506000858381518110610a9a57634e487b7160e01b600052603260045260246000fd5b602090810291909101810151600084815280835260408082206001600160a01b038e168352909352919091205490915081811015610aea5760405162461bcd60e51b81526004016102f49061196b565b6000838152602081815260408083206001600160a01b038e8116855292528083208585039055908b16825281208054849290610b27908490611a0e565b9250508190555050505080610b3b90611ae9565b9050610a43565b50846001600160a01b0316866001600160a01b0316826001600160a01b03167f4a39dc06d4c0dbc64b70af90fd698a233a518aa5d07e595d983b8c0526c8f7fb8787604051610b9292919061189d565b60405180910390a4610ba8818787878787610edb565b505050505050565b600680546001600160a01b038381166001600160a01b0319831681179093556040519116919082907f8be0079c531659141344cd1fd0a4f28419497f9722a3daafe3b4186f6b6457e090600090a35050565b60008281526004602090815260409091208251610c219284019061126a565b50817f6bb7ff708619ba0610cba295a58592e0451dee2622938c8755667688daf3529b610c4d846108af565b604051610c5a91906118cb565b60405180910390a25050565b610c7284848484611046565b60008381526003602052604081208054849290610c90908490611a0e565b909155505050505050565b6001600160a01b038416610cc15760405162461bcd60e51b81526004016102f490611926565b33610cda818787610cd188611147565b61041088611147565b6000848152602081815260408083206001600160a01b038a16845290915290205483811015610d1b5760405162461bcd60e51b81526004016102f49061196b565b6000858152602081815260408083206001600160a01b038b8116855292528083208785039055908816825281208054869290610d58908490611a0e565b909155505060408051868152602081018690526001600160a01b03808916928a821692918616917fc3d58168c5ae7397731d063d5bbf3d657854427343f4c083240f7aacaa2d0f62910160405180910390a4610db88288888888886111a0565b50505050505050565b606081610de55750506040805180820190915260018152600360fc1b602082015290565b8160005b8115610e0f5780610df981611ae9565b9150610e089050600a83611a26565b9150610de9565b60008167ffffffffffffffff811115610e3857634e487b7160e01b600052604160045260246000fd5b6040519080825280601f01601f191660200182016040528015610e62576020820181803683370190505b5090505b841561078557610e77600183611a3a565b9150610e84600a86611b04565b610e8f906030611a0e565b60f81b818381518110610eb257634e487b7160e01b600052603260045260246000fd5b60200101906001600160f81b031916908160001a905350610ed4600a86611a26565b9450610e66565b6001600160a01b0384163b15610ba85760405163bc197c8160e01b81526001600160a01b0385169063bc197c8190610f1f90899089908890889088906004016117e7565b602060405180830381600087803b158015610f3957600080fd5b505af1925050508015610f69575060408051601f3d908101601f19168201909252610f669181019061171e565b60015b61101657610f75611b5a565b806308c379a01415610faf5750610f8a611b72565b80610f955750610fb1565b8060405162461bcd60e51b81526004016102f491906118cb565b505b60405162461bcd60e51b815260206004820152603460248201527f455243313135353a207472616e7366657220746f206e6f6e20455243313135356044820152732932b1b2b4bb32b91034b6b83632b6b2b73a32b960611b60648201526084016102f4565b6001600160e01b0319811663bc197c8160e01b14610db85760405162461bcd60e51b81526004016102f4906118de565b6001600160a01b0384166110a65760405162461bcd60e51b815260206004820152602160248201527f455243313135353a206d696e7420746f20746865207a65726f206164647265736044820152607360f81b60648201526084016102f4565b336110b781600087610cd188611147565b6000848152602081815260408083206001600160a01b0389168452909152812080548592906110e7908490611a0e565b909155505060408051858152602081018590526001600160a01b0380881692600092918516917fc3d58168c5ae7397731d063d5bbf3d657854427343f4c083240f7aacaa2d0f62910160405180910390a4610410816000878787876111a0565b6040805160018082528183019092526060916000919060208083019080368337019050509050828160008151811061118f57634e487b7160e01b600052603260045260246000fd5b602090810291909101015292915050565b6001600160a01b0384163b15610ba85760405163f23a6e6160e01b81526001600160a01b0385169063f23a6e61906111e49089908990889088908890600401611845565b602060405180830381600087803b1580156111fe57600080fd5b505af192505050801561122e575060408051601f3d908101601f1916820190925261122b9181019061171e565b60015b61123a57610f75611b5a565b6001600160e01b0319811663f23a6e6160e01b14610db85760405162461bcd60e51b81526004016102f4906118de565b82805461127690611a81565b90600052602060002090601f01602090048101928261129857600085556112de565b82601f106112b157805160ff19168380011785556112de565b828001600101855582156112de579182015b828111156112de5782518255916020019190600101906112c3565b506112ea9291506112ee565b5090565b5b808211156112ea57600081556001016112ef565b600067ffffffffffffffff83111561131d5761131d611b44565b604051611334601f8501601f191660200182611abc565b80915083815284848401111561134957600080fd5b83836020830137600060208583010152509392505050565b80356001600160a01b038116811461137857600080fd5b919050565b600082601f83011261138d578081fd5b8135602061139a826119ea565b6040516113a78282611abc565b8381528281019150858301600585901b870184018810156113c6578586fd5b855b858110156113e4578135845292840192908401906001016113c8565b5090979650505050505050565b600082601f830112611401578081fd5b61141083833560208501611303565b9392505050565b600060208284031215611428578081fd5b61141082611361565b60008060408385031215611443578081fd5b61144c83611361565b915061145a60208401611361565b90509250929050565b600080600080600060a0868803121561147a578081fd5b61148386611361565b945061149160208701611361565b9350604086013567ffffffffffffffff808211156114ad578283fd5b6114b989838a0161137d565b945060608801359150808211156114ce578283fd5b6114da89838a0161137d565b935060808801359150808211156114ef578283fd5b506114fc888289016113f1565b9150509295509295909350565b600080600080600060a08688031215611520578081fd5b61152986611361565b945061153760208701611361565b93506040860135925060608601359150608086013567ffffffffffffffff811115611560578182fd5b6114fc888289016113f1565b6000806040838503121561157e578182fd5b61158783611361565b91506020830135801515811461159b578182fd5b809150509250929050565b600080604083850312156115b8578182fd5b6115c183611361565b946020939093013593505050565b6000806000606084860312156115e3578283fd5b6115ec84611361565b925060208401359150604084013567ffffffffffffffff81111561160e578182fd5b8401601f8101861361161e578182fd5b61162d86823560208401611303565b9150509250925092565b60008060408385031215611649578182fd5b823567ffffffffffffffff80821115611660578384fd5b818501915085601f830112611673578384fd5b81356020611680826119ea565b60405161168d8282611abc565b8381528281019150858301600585901b870184018b10156116ac578889fd5b8896505b848710156116d5576116c181611361565b8352600196909601959183019183016116b0565b50965050860135925050808211156116eb578283fd5b506116f88582860161137d565b9150509250929050565b600060208284031215611713578081fd5b813561141081611bfc565b60006020828403121561172f578081fd5b815161141081611bfc565b60006020828403121561174b578081fd5b5035919050565b6000815180845260208085019450808401835b8381101561178157815187529582019590820190600101611765565b509495945050505050565b600081518084526117a4816020860160208601611a51565b601f01601f19169290920160200192915050565b600083516117ca818460208801611a51565b8351908301906117de818360208801611a51565b01949350505050565b6001600160a01b0386811682528516602082015260a06040820181905260009061181390830186611752565b82810360608401526118258186611752565b90508281036080840152611839818561178c565b98975050505050505050565b6001600160a01b03868116825285166020820152604081018490526060810183905260a06080820181905260009061187f9083018461178c565b979650505050505050565b6020815260006114106020830184611752565b6040815260006118b06040830185611752565b82810360208401526118c28185611752565b95945050505050565b602081526000611410602083018461178c565b60208082526028908201527f455243313135353a204552433131353552656365697665722072656a656374656040820152676420746f6b656e7360c01b606082015260800190565b60208082526025908201527f455243313135353a207472616e7366657220746f20746865207a65726f206164604082015264647265737360d81b606082015260800190565b6020808252602a908201527f455243313135353a20696e73756666696369656e742062616c616e636520666f60408201526939103a3930b739b332b960b11b606082015260800190565b6020808252818101527f4f776e61626c653a2063616c6c6572206973206e6f7420746865206f776e6572604082015260600190565b600067ffffffffffffffff821115611a0457611a04611b44565b5060051b60200190565b60008219821115611a2157611a21611b18565b500190565b600082611a3557611a35611b2e565b500490565b600082821015611a4c57611a4c611b18565b500390565b60005b83811015611a6c578181015183820152602001611a54565b83811115611a7b576000848401525b50505050565b600181811c90821680611a9557607f821691505b60208210811415611ab657634e487b7160e01b600052602260045260246000fd5b50919050565b601f8201601f1916810167ffffffffffffffff81118282101715611ae257611ae2611b44565b6040525050565b6000600019821415611afd57611afd611b18565b5060010190565b600082611b1357611b13611b2e565b500690565b634e487b7160e01b600052601160045260246000fd5b634e487b7160e01b600052601260045260246000fd5b634e487b7160e01b600052604160045260246000fd5b600060033d1115611b6f57600481823e5160e01c5b90565b600060443d1015611b805790565b6040516003193d81016004833e81513d67ffffffffffffffff8160248401118184111715611bb057505050505090565b8285019150815181811115611bc85750505050505090565b843d8701016020828501011115611be25750505050505090565b611bf160208286010187611abc565b509095945050505050565b6001600160e01b0319811681146108ac57600080fdfea26469706673582212207c8abd506d743707e838760acd6b4d6ebc12f1faa926c0fd1607ace9034551f164736f6c63430008040033",
  "devdoc": {
    "kind": "dev",
    "methods": {
      "balanceOf(address,uint256)": {
        "details": "See {IERC1155-balanceOf}. Requirements: - `account` cannot be the zero address."
      },
      "balanceOfBatch(address[],uint256[])": {
        "details": "See {IERC1155-balanceOfBatch}. Requirements: - `accounts` and `ids` must have the same length."
      },
      "baseURI()": {
        "details": "Returns the base URI set via {_setBaseURI}. This will be automatically added as a prefix in {tokenURI} to each token's URI, or to the token ID if no specific URI is set for that token ID."
      },
      "exists(uint256)": {
        "details": "Indicates weither any token exist with a given id, or not."
      },
      "isApprovedForAll(address,address)": {
        "details": "See {IERC1155-isApprovedForAll}."
      },
      "owner()": {
        "details": "Returns the address of the current owner."
      },
      "renounceOwnership()": {
        "details": "Leaves the contract without owner. It will not be possible to call `onlyOwner` functions anymore. Can only be called by the current owner. NOTE: Renouncing ownership will leave the contract without an owner, thereby removing any functionality that is only available to the owner."
      },
      "safeBatchTransferFrom(address,address,uint256[],uint256[],bytes)": {
        "details": "See {IERC1155-safeBatchTransferFrom}."
      },
      "safeTransferFrom(address,address,uint256,uint256,bytes)": {
        "details": "See {IERC1155-safeTransferFrom}."
      },
      "setApprovalForAll(address,bool)": {
        "details": "See {IERC1155-setApprovalForAll}."
      },
      "supportsInterface(bytes4)": {
        "details": "See {IERC165-supportsInterface}."
      },
      "totalSupply(uint256)": {
        "details": "Total amount of tokens in with a given id."
      },
      "transferOwnership(address)": {
        "details": "Transfers ownership of the contract to a new account (`newOwner`). Can only be called by the current owner."
      }
    },
    "version": 1
  },
  "userdoc": {
    "kind": "user",
    "methods": {},
    "version": 1
  },
  "storageLayout": {
    "storage": [
      {
        "astId": 129,
        "contract": "contracts/FungyProofKeys.sol:FungyProofKeys",
        "label": "_balances",
        "offset": 0,
        "slot": "0",
        "type": "t_mapping(t_uint256,t_mapping(t_address,t_uint256))"
      },
      {
        "astId": 135,
        "contract": "contracts/FungyProofKeys.sol:FungyProofKeys",
        "label": "_operatorApprovals",
        "offset": 0,
        "slot": "1",
        "type": "t_mapping(t_address,t_mapping(t_address,t_bool))"
      },
      {
        "astId": 137,
        "contract": "contracts/FungyProofKeys.sol:FungyProofKeys",
        "label": "_uri",
        "offset": 0,
        "slot": "2",
        "type": "t_string_storage"
      },
      {
        "astId": 1357,
        "contract": "contracts/FungyProofKeys.sol:FungyProofKeys",
        "label": "_totalSupply",
        "offset": 0,
        "slot": "3",
        "type": "t_mapping(t_uint256,t_uint256)"
      },
      {
        "astId": 3300,
        "contract": "contracts/FungyProofKeys.sol:FungyProofKeys",
        "label": "_tokenURIs",
        "offset": 0,
        "slot": "4",
        "type": "t_mapping(t_uint256,t_string_storage)"
      },
      {
        "astId": 3302,
        "contract": "contracts/FungyProofKeys.sol:FungyProofKeys",
        "label": "_baseURI",
        "offset": 0,
        "slot": "5",
        "type": "t_string_storage"
      },
      {
        "astId": 7,
        "contract": "contracts/FungyProofKeys.sol:FungyProofKeys",
        "label": "_owner",
        "offset": 0,
        "slot": "6",
        "type": "t_address"
      },
      {
        "astId": 3565,
        "contract": "contracts/FungyProofKeys.sol:FungyProofKeys",
        "label": "_tokenIds",
        "offset": 0,
        "slot": "7",
        "type": "t_struct(Counter)2980_storage"
      }
    ],
    "types": {
      "t_address": {
        "encoding": "inplace",
        "label": "address",
        "numberOfBytes": "20"
      },
      "t_bool": {
        "encoding": "inplace",
        "label": "bool",
        "numberOfBytes": "1"
      },
      "t_mapping(t_address,t_bool)": {
        "encoding": "mapping",
        "key": "t_address",
        "label": "mapping(address => bool)",
        "numberOfBytes": "32",
        "value": "t_bool"
      },
      "t_mapping(t_address,t_mapping(t_address,t_bool))": {
        "encoding": "mapping",
        "key": "t_address",
        "label": "mapping(address => mapping(address => bool))",
        "numberOfBytes": "32",
        "value": "t_mapping(t_address,t_bool)"
      },
      "t_mapping(t_address,t_uint256)": {
        "encoding": "mapping",
        "key": "t_address",
        "label": "mapping(address => uint256)",
        "numberOfBytes": "32",
        "value": "t_uint256"
      },
      "t_mapping(t_uint256,t_mapping(t_address,t_uint256))": {
        "encoding": "mapping",
        "key": "t_uint256",
        "label": "mapping(uint256 => mapping(address => uint256))",
        "numberOfBytes": "32",
        "value": "t_mapping(t_address,t_uint256)"
      },
      "t_mapping(t_uint256,t_string_storage)": {
        "encoding": "mapping",
        "key": "t_uint256",
        "label": "mapping(uint256 => string)",
        "numberOfBytes": "32",
        "value": "t_string_storage"
      },
      "t_mapping(t_uint256,t_uint256)": {
        "encoding": "mapping",
        "key": "t_uint256",
        "label": "mapping(uint256 => uint256)",
        "numberOfBytes": "32",
        "value": "t_uint256"
      },
      "t_string_storage": {
        "encoding": "bytes",
        "label": "string",
        "numberOfBytes": "32"
      },
      "t_struct(Counter)2980_storage": {
        "encoding": "inplace",
        "label": "struct Counters.Counter",
        "members": [
          {
            "astId": 2979,
            "contract": "contracts/FungyProofKeys.sol:FungyProofKeys",
            "label": "_value",
            "offset": 0,
            "slot": "0",
            "type": "t_uint256"
          }
        ],
        "numberOfBytes": "32"
      },
      "t_uint256": {
        "encoding": "inplace",
        "label": "uint256",
        "numberOfBytes": "32"
      }
    }
  }
}